{
  "fileName": "DaoEvents.sol",
  "contractName": "DaoEvents",
  "source": "pragma solidity ^0.4.24;\n\nimport './EventTicket.sol';\nimport 'openzeppelin-solidity/contracts/token/ERC20/ERC20.sol';\nimport 'openzeppelin-solidity/contracts/lifecycle/Pausable.sol';\nimport 'openzeppelin-solidity/contracts/lifecycle/Destructible.sol';\nimport 'openzeppelin-solidity/contracts/math/SafeMath.sol';\n\n/**\n* @title DaoEvents\n* @dev It is a main contract that provides ability to create events, view information about events and buy tickets.\n*/\ncontract DaoEvents is EventTicket, Pausable, Destructible {\n\tusing SafeMath for uint;\n\taddress tokenAddress;\n\tstruct Event {\n\t\taddress owner;\n\t\tstring name;\n\t\tuint time;\n\t\tuint price;\n\t\tbool token;\n\t\tbool limited;\n\t\tuint seats;\n\t\tuint sold;\n\t\tstring ipfs;\n\t\tstring category;\n\t\tstring organizer;\n\t}\n\n\tEvent[] private events;\n\n\t// Mapping from owner to list of owned events IDs.\n\tmapping(address => uint256[]) private ownedEvents;\n\n\tevent CreatedEvent(address indexed owner, uint eventId, string name ,uint time, uint price, bool token, bool limited, uint seats, uint sold, string ipfs, string category, string organizer);\n\tevent SoldTicket(address indexed buyer, uint indexed eventId, uint ticketId);\n\tevent UpdatedEvent(uint eventId, string name ,uint time, uint price, uint seats, string ipfs, string category, string organizer);\n\tevent NewAndUpdatedEvent(address indexed owner, uint eventId, string name ,uint time, uint price, bool token, bool limited, uint seats, uint sold, string ipfs, string category, string organizer);\n\tevent DeletedEvent(uint indexed eventId);\n\n\t/**\n\t* @dev Constructor sets the USD Token address that will be used for buying tickets.\n\t* @param _token address - The address of the token contract.\n\t*/\n\tconstructor(address _token) public {\n\t\ttokenAddress = _token;\n\t}\n\t/**\n\t* @dev Throws if events time is in the past.\n\t* @param _time uint - Time of event.\n\t*/\n    modifier goodTime(uint _time) {\n        require(_time > now);\n        _;\n    }\n\t/**\n\t* @dev Throws if event does not exist.\n\t* @param _id uint - Event ID.\n\t*/\n    modifier eventExist(uint _id) {\n        require(_id < events.length);\n        _;\n    }\n\t/**\n\t* @dev Function changes the USD Token address.\n\t* @param _token address - The address of the token contract.\n\t* @notice Requires that the msg.sender is contract owner.\n\t*/\n\tfunction chengeToken(address _token) public onlyOwner() {\n\t\ttokenAddress = _token;\n\t}\n\t/**\n\t* @dev Function creates the event.\n\t* @param _name string - The name of the event.\n\t* @param _time uint - The time of the event. Should be in the future.\n\t* @param _price uint - The ticket price.\n\t* @param _token bool - If true the price will be in tokens, else the price will be in ethereum.\n\t* @param _limited bool - If true event has limited seats.\n\t* @param _seats uint - If event has limited seats, says how much tickets can be sold.\n\t* @param _ipfs string - The IPFS hash containing additional information about the event.\n\t* @param _category string - The category of the event.\n\t* @param _organizer string - The name of the event manager.\n\t* @notice Requires that the events time is in the future.\n\t* @notice Requires that the contract is not paused.\n\t*/\n\tfunction createEvent(\n\t\tstring _name,\n\t\tuint _time,\n\t\tuint _price,\n\t\tbool _token,\n\t\tbool _limited,\n\t\tuint _seats,\n\t\tstring _ipfs,\n\t\tstring _category,\n\t\tstring _organizer\n\t)\n\t\tgoodTime(_time)\n\t\twhenNotPaused()\n\t\tpublic\n\t{\n\t\tEvent memory _event = Event({\n\t\t\towner: msg.sender,\n\t\t\tname: _name,\n\t\t\ttime: _time,\n\t\t\tprice: _price,\n\t\t\ttoken: _token,\n\t\t\tlimited: _limited,\n\t\t\tseats: _seats,\n\t\t\tsold: 0,\n\t\t\tipfs: _ipfs,\n\t\t\tcategory: _category,\n\t\t\torganizer: _organizer\n\t\t});\n\t\tuint _eventId = events.push(_event).sub(1);\n\t\townedEvents[msg.sender].push(_eventId);\n\n\t\temit CreatedEvent(msg.sender, _eventId, _name, _time, _price, _event.token, _event.limited, _seats, 0, _event.ipfs, _event.category, _organizer);\n\t\temit NewAndUpdatedEvent(msg.sender, _eventId, _name, _time, _price, _event.token, _event.limited, _seats, 0, _event.ipfs, _event.category, _organizer);\n\t}\n\n\tfunction updateEvent(\n        uint _eventId,\n\t\tuint _time,\n\t\tuint _price,\n\t\tuint _seats,\n\t\tstring _ipfs,\n\t\tstring _category,\n\t\tstring _organizer\n    ) \n        goodTime(_time)\n\t\twhenNotPaused()\n\t\teventExist(_eventId)\n\t\tpublic\n    {\n\t\trequire(events[_eventId].owner != address(0), \"Event has deleted.\");\n        require(events[_eventId].owner == msg.sender, \"Only Event owner can access.\");\n        require(events[_eventId].sold == 0, \"Event tickets has been sold so you cannot delete this event.\");\n\n\t\tEvent memory _event = Event({\n\t\t\towner: events[_eventId].owner,\n\t\t\tname: events[_eventId].name,\n\t\t\ttime: _time,\n\t\t\tprice: _price,\n\t\t\ttoken: events[_eventId].token,\n\t\t\tlimited: events[_eventId].limited,\n\t\t\tseats: _seats,\n\t\t\tsold: events[_eventId].sold,\n\t\t\tipfs: _ipfs,\n\t\t\tcategory: _category,\n\t\t\torganizer: _organizer\n\t\t});\n\n\t\tevents[_eventId] = _event;\n\n\t\temit UpdatedEvent(_eventId, _event.name , _event.time, _event.price, _event.seats, _event.ipfs, _event.category, _event.organizer);\n\t\temit NewAndUpdatedEvent(_event.owner, _eventId, _event.name, _event.time, _event.price, _event.token, _event.limited, _event.seats, _event.sold, _event.ipfs, _event.category, _event.organizer);\n\t}\n\n\tfunction deleteEvent(uint _id) public eventExist(_id) {\n\t\trequire(events[_id].owner != address(0), \"Event has deleted.\");\n        require(events[_id].owner == msg.sender, \"Only Event owner can delete.\");\n        require(events[_id].sold == 0, \"Event tickets has been sold so you cannot delete this event.\");\n\t\t\n        events[_id].owner = address(0);\n\t\tevents[_id].name = '';\n\t\tevents[_id].time = 0;\n\t\tevents[_id].price = 0;\n\t\tevents[_id].token = false;\n\t\tevents[_id].limited = false;\n\t\tevents[_id].seats = 0;\n\t\tevents[_id].sold = 0;\n\t\tevents[_id].ipfs = '';\n\t\tevents[_id].category = '';\n\t\tevents[_id].organizer = '';\n\n\t\temit DeletedEvent(_id);\n\t}\n\t/**\n\t* @dev Function to show all events of the specified address.\n\t* @param _owner address - The address to query the events of.\n\t* @return uint[] - Array of events IDs.\n\t*/\n\tfunction eventsOf(address _owner) public view returns(uint[]) {\n\t\treturn ownedEvents[_owner];\n\t}\n\n\t/**\n\t* @dev Function to show information about the event.\n\t* @param _id uint - Event ID.\n\t* @return name string - The name of the event.\n\t* @return time uint - The time of the event.\n\t* @return price uint - The price of the event.\n\t* @return token bool - If true the price is in tokens, else the price is in ethereum.\n\t* @return limited bool - If true event has limited seats.\n\t* @return seats uint - If event has limited seats, show how much tickets can be sold.\n\t* @return sold uint - Number of sold tickets.\n\t* @return ipfs string - The IPFS hash containing additional information about event.\n\t* @return category string - The category of the event.\n\t* @return owner address - The owner of the event.\n\t* @notice Requires that the events exist.\n\t*/\n\tfunction getEvent(uint _id)\n\t\tpublic\n\t\tview\n\t\teventExist(_id)\n\treturns(\n\t\tstring name,\n\t\tuint time,\n\t\tuint price,\n\t\tbool token,\n\t\tbool limited,\n\t\tuint seats,\n\t\tuint sold,\n\t\tstring ipfs,\n\t\tstring category,\n\t\taddress owner\n\t) {\n\t\tEvent memory _event = events[_id];\n\t\treturn(\n\t\t\t_event.name,\n\t\t\t_event.time,\n\t\t\t_event.price,\n\t\t\t_event.token,\n\t\t\t_event.limited,\n\t\t\t_event.seats,\n\t\t\t_event.sold,\n\t\t\t_event.ipfs,\n\t\t\t_event.category,\n\t\t\t_event.owner\n\t\t);\n\t}\n\n\tfunction getOwnerDetails(uint _id) public view returns(string organizer) {\n\t\tEvent memory _event = events[_id];\n\t\treturn _event.organizer;\n\t}\n\t/**\n\t* @dev Function returns number of all events.\n\t* @return uint - Number of events.\n\t*/\n\tfunction getEventsCount() public view returns(uint) {\n\t\treturn events.length;\n\t}\n\t/**\n\t* @dev Function to buy ticket to specific event.\n\t* @param _eventId uint - The ID of event.\n\t* @notice Requires that the events exist.\n\t* @notice Requires that the events time is in the future.\n\t* @notice Requires that the contract is not paused.\n\t* @notice Reverts if event has limited seats and an amount of sold tickets bigger then the number of seats.\n\t* @notice Reverts if ticket price is in ethereum and msg.value smaller then the ticket price.\n\t* @notice Reverts if ticket price is in tokens and token.transferFrom() does not return true.\n\t*/\n\tfunction buyTicket(uint _eventId)\n\t\tpublic\n\t\tpayable\n\t\teventExist(_eventId)\n\t\tgoodTime(events[_eventId].time)\n\t\twhenNotPaused()\n\t{\n\t\tEvent memory _event = events[_eventId];\n\t\tif (_event.limited) require(_event.seats > _event.sold);\n\t\tif (!_event.token) {\n\t\t\trequire(msg.value >= _event.price);\n\t\t\t_event.owner.transfer(_event.price);\n\t\t} else {\n\t\t\tif (!ERC20(tokenAddress).transferFrom(msg.sender, _event.owner, _event.price)) {\n\t\t\t\trevert();\n\t\t\t}\n\t\t}\n\t\tuint seat = _event.sold.add(1);\n\t\tevents[_eventId].sold = seat;\n\t\tTicket memory _ticket = Ticket({\n\t\t\tevent_id: _eventId,\n\t\t\tseat: seat\n\t\t});\n\t\tuint _ticketId = tickets.push(_ticket).sub(1);\n        _mint(msg.sender, _ticketId);\n\t\temit SoldTicket(msg.sender, _eventId, _ticketId);\n\t}\n}\n\n// emit NewAndUpdatedEvent(events[_eventId].owner, _eventId, events[_eventId].name, _time, _price, events[_eventId].token, events[_eventId].limited, _seats, events[_eventId].sold, _ipfs, _category, _organizer);",
  "sourcePath": "contracts/DaoEvents.sol",
  "abi": [
    {
      "constant": true,
      "inputs": [
        {
          "name": "_interfaceId",
          "type": "bytes4"
        }
      ],
      "name": "supportsInterface",
      "outputs": [
        {
          "name": "",
          "type": "bool"
        }
      ],
      "payable": false,
      "stateMutability": "view",
      "type": "function"
    },
    {
      "constant": true,
      "inputs": [],
      "name": "name",
      "outputs": [
        {
          "name": "",
          "type": "string"
        }
      ],
      "payable": false,
      "stateMutability": "view",
      "type": "function"
    },
    {
      "constant": true,
      "inputs": [
        {
          "name": "_tokenId",
          "type": "uint256"
        }
      ],
      "name": "getApproved",
      "outputs": [
        {
          "name": "",
          "type": "address"
        }
      ],
      "payable": false,
      "stateMutability": "view",
      "type": "function"
    },
    {
      "constant": false,
      "inputs": [
        {
          "name": "_to",
          "type": "address"
        },
        {
          "name": "_tokenId",
          "type": "uint256"
        }
      ],
      "name": "approve",
      "outputs": [],
      "payable": false,
      "stateMutability": "nonpayable",
      "type": "function"
    },
    {
      "constant": true,
      "inputs": [],
      "name": "totalSupply",
      "outputs": [
        {
          "name": "",
          "type": "uint256"
        }
      ],
      "payable": false,
      "stateMutability": "view",
      "type": "function"
    },
    {
      "constant": true,
      "inputs": [],
      "name": "InterfaceId_ERC165",
      "outputs": [
        {
          "name": "",
          "type": "bytes4"
        }
      ],
      "payable": false,
      "stateMutability": "view",
      "type": "function"
    },
    {
      "constant": false,
      "inputs": [
        {
          "name": "_from",
          "type": "address"
        },
        {
          "name": "_to",
          "type": "address"
        },
        {
          "name": "_tokenId",
          "type": "uint256"
        }
      ],
      "name": "transferFrom",
      "outputs": [],
      "payable": false,
      "stateMutability": "nonpayable",
      "type": "function"
    },
    {
      "constant": true,
      "inputs": [
        {
          "name": "_owner",
          "type": "address"
        },
        {
          "name": "_index",
          "type": "uint256"
        }
      ],
      "name": "tokenOfOwnerByIndex",
      "outputs": [
        {
          "name": "",
          "type": "uint256"
        }
      ],
      "payable": false,
      "stateMutability": "view",
      "type": "function"
    },
    {
      "constant": true,
      "inputs": [],
      "name": "getEventsCount",
      "outputs": [
        {
          "name": "",
          "type": "uint256"
        }
      ],
      "payable": false,
      "stateMutability": "view",
      "type": "function"
    },
    {
      "constant": true,
      "inputs": [
        {
          "name": "_owner",
          "type": "address"
        }
      ],
      "name": "ticketsOf",
      "outputs": [
        {
          "name": "",
          "type": "uint256[]"
        }
      ],
      "payable": false,
      "stateMutability": "view",
      "type": "function"
    },
    {
      "constant": false,
      "inputs": [
        {
          "name": "_token",
          "type": "address"
        }
      ],
      "name": "chengeToken",
      "outputs": [],
      "payable": false,
      "stateMutability": "nonpayable",
      "type": "function"
    },
    {
      "constant": false,
      "inputs": [
        {
          "name": "_name",
          "type": "string"
        },
        {
          "name": "_time",
          "type": "uint256"
        },
        {
          "name": "_price",
          "type": "uint256"
        },
        {
          "name": "_token",
          "type": "bool"
        },
        {
          "name": "_limited",
          "type": "bool"
        },
        {
          "name": "_seats",
          "type": "uint256"
        },
        {
          "name": "_ipfs",
          "type": "string"
        },
        {
          "name": "_category",
          "type": "string"
        },
        {
          "name": "_organizer",
          "type": "string"
        }
      ],
      "name": "createEvent",
      "outputs": [],
      "payable": false,
      "stateMutability": "nonpayable",
      "type": "function"
    },
    {
      "constant": false,
      "inputs": [],
      "name": "unpause",
      "outputs": [],
      "payable": false,
      "stateMutability": "nonpayable",
      "type": "function"
    },
    {
      "constant": false,
      "inputs": [
        {
          "name": "_from",
          "type": "address"
        },
        {
          "name": "_to",
          "type": "address"
        },
        {
          "name": "_tokenId",
          "type": "uint256"
        }
      ],
      "name": "safeTransferFrom",
      "outputs": [],
      "payable": false,
      "stateMutability": "nonpayable",
      "type": "function"
    },
    {
      "constant": true,
      "inputs": [
        {
          "name": "_tokenId",
          "type": "uint256"
        }
      ],
      "name": "exists",
      "outputs": [
        {
          "name": "",
          "type": "bool"
        }
      ],
      "payable": false,
      "stateMutability": "view",
      "type": "function"
    },
    {
      "constant": true,
      "inputs": [
        {
          "name": "_index",
          "type": "uint256"
        }
      ],
      "name": "tokenByIndex",
      "outputs": [
        {
          "name": "",
          "type": "uint256"
        }
      ],
      "payable": false,
      "stateMutability": "view",
      "type": "function"
    },
    {
      "constant": true,
      "inputs": [],
      "name": "paused",
      "outputs": [
        {
          "name": "",
          "type": "bool"
        }
      ],
      "payable": false,
      "stateMutability": "view",
      "type": "function"
    },
    {
      "constant": true,
      "inputs": [
        {
          "name": "_tokenId",
          "type": "uint256"
        }
      ],
      "name": "ownerOf",
      "outputs": [
        {
          "name": "",
          "type": "address"
        }
      ],
      "payable": false,
      "stateMutability": "view",
      "type": "function"
    },
    {
      "constant": false,
      "inputs": [
        {
          "name": "_eventId",
          "type": "uint256"
        }
      ],
      "name": "buyTicket",
      "outputs": [],
      "payable": true,
      "stateMutability": "payable",
      "type": "function"
    },
    {
      "constant": true,
      "inputs": [
        {
          "name": "_owner",
          "type": "address"
        }
      ],
      "name": "eventsOf",
      "outputs": [
        {
          "name": "",
          "type": "uint256[]"
        }
      ],
      "payable": false,
      "stateMutability": "view",
      "type": "function"
    },
    {
      "constant": true,
      "inputs": [
        {
          "name": "_id",
          "type": "uint256"
        }
      ],
      "name": "getEvent",
      "outputs": [
        {
          "name": "name",
          "type": "string"
        },
        {
          "name": "time",
          "type": "uint256"
        },
        {
          "name": "price",
          "type": "uint256"
        },
        {
          "name": "token",
          "type": "bool"
        },
        {
          "name": "limited",
          "type": "bool"
        },
        {
          "name": "seats",
          "type": "uint256"
        },
        {
          "name": "sold",
          "type": "uint256"
        },
        {
          "name": "ipfs",
          "type": "string"
        },
        {
          "name": "category",
          "type": "string"
        },
        {
          "name": "owner",
          "type": "address"
        }
      ],
      "payable": false,
      "stateMutability": "view",
      "type": "function"
    },
    {
      "constant": true,
      "inputs": [
        {
          "name": "_owner",
          "type": "address"
        }
      ],
      "name": "balanceOf",
      "outputs": [
        {
          "name": "",
          "type": "uint256"
        }
      ],
      "payable": false,
      "stateMutability": "view",
      "type": "function"
    },
    {
      "constant": false,
      "inputs": [],
      "name": "renounceOwnership",
      "outputs": [],
      "payable": false,
      "stateMutability": "nonpayable",
      "type": "function"
    },
    {
      "constant": true,
      "inputs": [
        {
          "name": "_id",
          "type": "uint256"
        }
      ],
      "name": "getTicket",
      "outputs": [
        {
          "name": "",
          "type": "uint256"
        },
        {
          "name": "",
          "type": "uint256"
        }
      ],
      "payable": false,
      "stateMutability": "view",
      "type": "function"
    },
    {
      "constant": false,
      "inputs": [],
      "name": "destroy",
      "outputs": [],
      "payable": false,
      "stateMutability": "nonpayable",
      "type": "function"
    },
    {
      "constant": false,
      "inputs": [],
      "name": "pause",
      "outputs": [],
      "payable": false,
      "stateMutability": "nonpayable",
      "type": "function"
    },
    {
      "constant": true,
      "inputs": [],
      "name": "owner",
      "outputs": [
        {
          "name": "",
          "type": "address"
        }
      ],
      "payable": false,
      "stateMutability": "view",
      "type": "function"
    },
    {
      "constant": true,
      "inputs": [
        {
          "name": "_id",
          "type": "uint256"
        }
      ],
      "name": "getOwnerDetails",
      "outputs": [
        {
          "name": "organizer",
          "type": "string"
        }
      ],
      "payable": false,
      "stateMutability": "view",
      "type": "function"
    },
    {
      "constant": true,
      "inputs": [],
      "name": "symbol",
      "outputs": [
        {
          "name": "",
          "type": "string"
        }
      ],
      "payable": false,
      "stateMutability": "view",
      "type": "function"
    },
    {
      "constant": false,
      "inputs": [
        {
          "name": "_eventId",
          "type": "uint256"
        },
        {
          "name": "_time",
          "type": "uint256"
        },
        {
          "name": "_price",
          "type": "uint256"
        },
        {
          "name": "_seats",
          "type": "uint256"
        },
        {
          "name": "_ipfs",
          "type": "string"
        },
        {
          "name": "_category",
          "type": "string"
        },
        {
          "name": "_organizer",
          "type": "string"
        }
      ],
      "name": "updateEvent",
      "outputs": [],
      "payable": false,
      "stateMutability": "nonpayable",
      "type": "function"
    },
    {
      "constant": false,
      "inputs": [
        {
          "name": "_to",
          "type": "address"
        },
        {
          "name": "_approved",
          "type": "bool"
        }
      ],
      "name": "setApprovalForAll",
      "outputs": [],
      "payable": false,
      "stateMutability": "nonpayable",
      "type": "function"
    },
    {
      "constant": false,
      "inputs": [
        {
          "name": "_from",
          "type": "address"
        },
        {
          "name": "_to",
          "type": "address"
        },
        {
          "name": "_tokenId",
          "type": "uint256"
        },
        {
          "name": "_data",
          "type": "bytes"
        }
      ],
      "name": "safeTransferFrom",
      "outputs": [],
      "payable": false,
      "stateMutability": "nonpayable",
      "type": "function"
    },
    {
      "constant": true,
      "inputs": [
        {
          "name": "_tokenId",
          "type": "uint256"
        }
      ],
      "name": "tokenURI",
      "outputs": [
        {
          "name": "",
          "type": "string"
        }
      ],
      "payable": false,
      "stateMutability": "view",
      "type": "function"
    },
    {
      "constant": true,
      "inputs": [
        {
          "name": "_owner",
          "type": "address"
        },
        {
          "name": "_operator",
          "type": "address"
        }
      ],
      "name": "isApprovedForAll",
      "outputs": [
        {
          "name": "",
          "type": "bool"
        }
      ],
      "payable": false,
      "stateMutability": "view",
      "type": "function"
    },
    {
      "constant": false,
      "inputs": [
        {
          "name": "_newOwner",
          "type": "address"
        }
      ],
      "name": "transferOwnership",
      "outputs": [],
      "payable": false,
      "stateMutability": "nonpayable",
      "type": "function"
    },
    {
      "constant": false,
      "inputs": [
        {
          "name": "_recipient",
          "type": "address"
        }
      ],
      "name": "destroyAndSend",
      "outputs": [],
      "payable": false,
      "stateMutability": "nonpayable",
      "type": "function"
    },
    {
      "constant": false,
      "inputs": [
        {
          "name": "_id",
          "type": "uint256"
        }
      ],
      "name": "deleteEvent",
      "outputs": [],
      "payable": false,
      "stateMutability": "nonpayable",
      "type": "function"
    },
    {
      "inputs": [
        {
          "name": "_token",
          "type": "address"
        }
      ],
      "payable": false,
      "stateMutability": "nonpayable",
      "type": "constructor"
    },
    {
      "anonymous": false,
      "inputs": [
        {
          "indexed": true,
          "name": "owner",
          "type": "address"
        },
        {
          "indexed": false,
          "name": "eventId",
          "type": "uint256"
        },
        {
          "indexed": false,
          "name": "name",
          "type": "string"
        },
        {
          "indexed": false,
          "name": "time",
          "type": "uint256"
        },
        {
          "indexed": false,
          "name": "price",
          "type": "uint256"
        },
        {
          "indexed": false,
          "name": "token",
          "type": "bool"
        },
        {
          "indexed": false,
          "name": "limited",
          "type": "bool"
        },
        {
          "indexed": false,
          "name": "seats",
          "type": "uint256"
        },
        {
          "indexed": false,
          "name": "sold",
          "type": "uint256"
        },
        {
          "indexed": false,
          "name": "ipfs",
          "type": "string"
        },
        {
          "indexed": false,
          "name": "category",
          "type": "string"
        },
        {
          "indexed": false,
          "name": "organizer",
          "type": "string"
        }
      ],
      "name": "CreatedEvent",
      "type": "event"
    },
    {
      "anonymous": false,
      "inputs": [
        {
          "indexed": true,
          "name": "buyer",
          "type": "address"
        },
        {
          "indexed": true,
          "name": "eventId",
          "type": "uint256"
        },
        {
          "indexed": false,
          "name": "ticketId",
          "type": "uint256"
        }
      ],
      "name": "SoldTicket",
      "type": "event"
    },
    {
      "anonymous": false,
      "inputs": [
        {
          "indexed": false,
          "name": "eventId",
          "type": "uint256"
        },
        {
          "indexed": false,
          "name": "name",
          "type": "string"
        },
        {
          "indexed": false,
          "name": "time",
          "type": "uint256"
        },
        {
          "indexed": false,
          "name": "price",
          "type": "uint256"
        },
        {
          "indexed": false,
          "name": "seats",
          "type": "uint256"
        },
        {
          "indexed": false,
          "name": "ipfs",
          "type": "string"
        },
        {
          "indexed": false,
          "name": "category",
          "type": "string"
        },
        {
          "indexed": false,
          "name": "organizer",
          "type": "string"
        }
      ],
      "name": "UpdatedEvent",
      "type": "event"
    },
    {
      "anonymous": false,
      "inputs": [
        {
          "indexed": true,
          "name": "owner",
          "type": "address"
        },
        {
          "indexed": false,
          "name": "eventId",
          "type": "uint256"
        },
        {
          "indexed": false,
          "name": "name",
          "type": "string"
        },
        {
          "indexed": false,
          "name": "time",
          "type": "uint256"
        },
        {
          "indexed": false,
          "name": "price",
          "type": "uint256"
        },
        {
          "indexed": false,
          "name": "token",
          "type": "bool"
        },
        {
          "indexed": false,
          "name": "limited",
          "type": "bool"
        },
        {
          "indexed": false,
          "name": "seats",
          "type": "uint256"
        },
        {
          "indexed": false,
          "name": "sold",
          "type": "uint256"
        },
        {
          "indexed": false,
          "name": "ipfs",
          "type": "string"
        },
        {
          "indexed": false,
          "name": "category",
          "type": "string"
        },
        {
          "indexed": false,
          "name": "organizer",
          "type": "string"
        }
      ],
      "name": "NewAndUpdatedEvent",
      "type": "event"
    },
    {
      "anonymous": false,
      "inputs": [
        {
          "indexed": true,
          "name": "eventId",
          "type": "uint256"
        }
      ],
      "name": "DeletedEvent",
      "type": "event"
    },
    {
      "anonymous": false,
      "inputs": [],
      "name": "Pause",
      "type": "event"
    },
    {
      "anonymous": false,
      "inputs": [],
      "name": "Unpause",
      "type": "event"
    },
    {
      "anonymous": false,
      "inputs": [
        {
          "indexed": true,
          "name": "previousOwner",
          "type": "address"
        }
      ],
      "name": "OwnershipRenounced",
      "type": "event"
    },
    {
      "anonymous": false,
      "inputs": [
        {
          "indexed": true,
          "name": "previousOwner",
          "type": "address"
        },
        {
          "indexed": true,
          "name": "newOwner",
          "type": "address"
        }
      ],
      "name": "OwnershipTransferred",
      "type": "event"
    },
    {
      "anonymous": false,
      "inputs": [
        {
          "indexed": true,
          "name": "_from",
          "type": "address"
        },
        {
          "indexed": true,
          "name": "_to",
          "type": "address"
        },
        {
          "indexed": true,
          "name": "_tokenId",
          "type": "uint256"
        }
      ],
      "name": "Transfer",
      "type": "event"
    },
    {
      "anonymous": false,
      "inputs": [
        {
          "indexed": true,
          "name": "_owner",
          "type": "address"
        },
        {
          "indexed": true,
          "name": "_approved",
          "type": "address"
        },
        {
          "indexed": true,
          "name": "_tokenId",
          "type": "uint256"
        }
      ],
      "name": "Approval",
      "type": "event"
    },
    {
      "anonymous": false,
      "inputs": [
        {
          "indexed": true,
          "name": "_owner",
          "type": "address"
        },
        {
          "indexed": true,
          "name": "_operator",
          "type": "address"
        },
        {
          "indexed": false,
          "name": "_approved",
          "type": "bool"
        }
      ],
      "name": "ApprovalForAll",
      "type": "event"
    }
  ],
  "bytecode": "0x60806040526000600d60146101000a81548160ff0219169083151502179055503480156200002c57600080fd5b506040516020806200585c833981018060405281019080805190602001909291905050506040805190810160405280601181526020017f50686f656e697844414f205469636b65740000000000000000000000000000008152506040805190810160405280600781526020017ff09f8e9fefb88f00000000000000000000000000000000000000000000000000815250620000f96301ffc9a77c010000000000000000000000000000000000000000000000000000000002620002aa640100000000026401000000009004565b620001366380ac58cd7c010000000000000000000000000000000000000000000000000000000002620002aa640100000000026401000000009004565b62000173634f558e797c010000000000000000000000000000000000000000000000000000000002620002aa640100000000026401000000009004565b81600590805190602001906200018b92919062000368565b508060069080519060200190620001a492919062000368565b50620001e263780e9d637c010000000000000000000000000000000000000000000000000000000002620002aa640100000000026401000000009004565b6200021f635b5e139f7c010000000000000000000000000000000000000000000000000000000002620002aa640100000000026401000000009004565b505033600d60006101000a81548173ffffffffffffffffffffffffffffffffffffffff021916908373ffffffffffffffffffffffffffffffffffffffff16021790555080600e60006101000a81548173ffffffffffffffffffffffffffffffffffffffff021916908373ffffffffffffffffffffffffffffffffffffffff1602179055505062000417565b63ffffffff7c010000000000000000000000000000000000000000000000000000000002817bffffffffffffffffffffffffffffffffffffffffffffffffffffffff191614151515620002fc57600080fd5b6001600080837bffffffffffffffffffffffffffffffffffffffffffffffffffffffff19167bffffffffffffffffffffffffffffffffffffffffffffffffffffffff1916815260200190815260200160002060006101000a81548160ff02191690831515021790555050565b828054600181600116156101000203166002900490600052602060002090601f016020900481019282601f10620003ab57805160ff1916838001178555620003dc565b82800160010185558215620003dc579182015b82811115620003db578251825591602001919060010190620003be565b5b509050620003eb9190620003ef565b5090565b6200041491905b8082111562000410576000816000905550600101620003f6565b5090565b90565b61543580620004276000396000f3006080604052600436106101cd576000357c0100000000000000000000000000000000000000000000000000000000900463ffffffff16806301ffc9a7146101d257806306fdde0314610236578063081812fc146102c6578063095ea7b31461033357806318160ddd1461038057806319fa8f50146103ab57806323b872dd146104145780632f745c591461048157806330366d5f146104e2578063316579261461050d5780633289ac2b146105a557806333c05f13146105e85780633f4ba83a1461075957806342842e0e146107705780634f558e79146107dd5780634f6ccce7146108225780635c975abb146108635780636352211e1461089257806367dd74ca146108ff57806368ed44e71461091f5780636d1884e0146109b757806370a0823114610b9a578063715018a614610bf15780637dc379fa14610c0857806383197ef014610c505780638456cb5914610c675780638da5cb5b14610c7e5780638fb4138214610cd557806395d89b4114610d7b5780639e9f6d9e14610e0b578063a22cb46514610f28578063b88d4fde14610f77578063c87b56dd1461102a578063e985e9c5146110d0578063f2fde38b1461114b578063f5074f411461118e578063f8749a58146111d1575b600080fd5b3480156101de57600080fd5b5061021c60048036038101908080357bffffffffffffffffffffffffffffffffffffffffffffffffffffffff191690602001909291905050506111fe565b604051808215151515815260200191505060405180910390f35b34801561024257600080fd5b5061024b611265565b6040518080602001828103825283818151815260200191508051906020019080838360005b8381101561028b578082015181840152602081019050610270565b50505050905090810190601f1680156102b85780820380516001836020036101000a031916815260200191505b509250505060405180910390f35b3480156102d257600080fd5b506102f160048036038101908080359060200190929190505050611307565b604051808273ffffffffffffffffffffffffffffffffffffffff1673ffffffffffffffffffffffffffffffffffffffff16815260200191505060405180910390f35b34801561033f57600080fd5b5061037e600480360381019080803573ffffffffffffffffffffffffffffffffffffffff16906020019092919080359060200190929190505050611344565b005b34801561038c57600080fd5b50610395611489565b6040518082815260200191505060405180910390f35b3480156103b757600080fd5b506103c0611496565b60405180827bffffffffffffffffffffffffffffffffffffffffffffffffffffffff19167bffffffffffffffffffffffffffffffffffffffffffffffffffffffff1916815260200191505060405180910390f35b34801561042057600080fd5b5061047f600480360381019080803573ffffffffffffffffffffffffffffffffffffffff169060200190929190803573ffffffffffffffffffffffffffffffffffffffff169060200190929190803590602001909291905050506114bd565b005b34801561048d57600080fd5b506104cc600480360381019080803573ffffffffffffffffffffffffffffffffffffffff169060200190929190803590602001909291905050506115c8565b6040518082815260200191505060405180910390f35b3480156104ee57600080fd5b506104f761163f565b6040518082815260200191505060405180910390f35b34801561051957600080fd5b5061054e600480360381019080803573ffffffffffffffffffffffffffffffffffffffff16906020019092919050505061164c565b6040518080602001828103825283818151815260200191508051906020019060200280838360005b83811015610591578082015181840152602081019050610576565b505050509050019250505060405180910390f35b3480156105b157600080fd5b506105e6600480360381019080803573ffffffffffffffffffffffffffffffffffffffff1690602001909291905050506116e3565b005b3480156105f457600080fd5b50610757600480360381019080803590602001908201803590602001908080601f0160208091040260200160405190810160405280939291908181526020018383808284378201915050505050509192919290803590602001909291908035906020019092919080351515906020019092919080351515906020019092919080359060200190929190803590602001908201803590602001908080601f0160208091040260200160405190810160405280939291908181526020018383808284378201915050505050509192919290803590602001908201803590602001908080601f0160208091040260200160405190810160405280939291908181526020018383808284378201915050505050509192919290803590602001908201803590602001908080601f0160208091040260200160405190810160405280939291908181526020018383808284378201915050505050509192919290505050611783565b005b34801561076557600080fd5b5061076e611e9e565b005b34801561077c57600080fd5b506107db600480360381019080803573ffffffffffffffffffffffffffffffffffffffff169060200190929190803573ffffffffffffffffffffffffffffffffffffffff16906020019092919080359060200190929190505050611f5e565b005b3480156107e957600080fd5b5061080860048036038101908080359060200190929190505050611f7f565b604051808215151515815260200191505060405180910390f35b34801561082e57600080fd5b5061084d60048036038101908080359060200190929190505050611ff1565b6040518082815260200191505060405180910390f35b34801561086f57600080fd5b50610878612029565b604051808215151515815260200191505060405180910390f35b34801561089e57600080fd5b506108bd6004803603810190808035906020019092919050505061203c565b604051808273ffffffffffffffffffffffffffffffffffffffff1673ffffffffffffffffffffffffffffffffffffffff16815260200191505060405180910390f35b61091d600480360381019080803590602001909291905050506120ba565b005b34801561092b57600080fd5b50610960600480360381019080803573ffffffffffffffffffffffffffffffffffffffff169060200190929190505050612781565b6040518080602001828103825283818151815260200191508051906020019060200280838360005b838110156109a3578082015181840152602081019050610988565b505050509050019250505060405180910390f35b3480156109c357600080fd5b506109e260048036038101908080359060200190929190505050612818565b60405180806020018b81526020018a8152602001891515151581526020018815151515815260200187815260200186815260200180602001806020018573ffffffffffffffffffffffffffffffffffffffff1673ffffffffffffffffffffffffffffffffffffffff16815260200184810384528e818151815260200191508051906020019080838360005b83811015610a88578082015181840152602081019050610a6d565b50505050905090810190601f168015610ab55780820380516001836020036101000a031916815260200191505b50848103835287818151815260200191508051906020019080838360005b83811015610aee578082015181840152602081019050610ad3565b50505050905090810190601f168015610b1b5780820380516001836020036101000a031916815260200191505b50848103825286818151815260200191508051906020019080838360005b83811015610b54578082015181840152602081019050610b39565b50505050905090810190601f168015610b815780820380516001836020036101000a031916815260200191505b509d505050505050505050505050505060405180910390f35b348015610ba657600080fd5b50610bdb600480360381019080803573ffffffffffffffffffffffffffffffffffffffff169060200190929190505050612c0c565b6040518082815260200191505060405180910390f35b348015610bfd57600080fd5b50610c06612c90565b005b348015610c1457600080fd5b50610c3360048036038101908080359060200190929190505050612d95565b604051808381526020018281526020019250505060405180910390f35b348015610c5c57600080fd5b50610c65612e05565b005b348015610c7357600080fd5b50610c7c612e9c565b005b348015610c8a57600080fd5b50610c93612f5d565b604051808273ffffffffffffffffffffffffffffffffffffffff1673ffffffffffffffffffffffffffffffffffffffff16815260200191505060405180910390f35b348015610ce157600080fd5b50610d0060048036038101908080359060200190929190505050612f83565b6040518080602001828103825283818151815260200191508051906020019080838360005b83811015610d40578082015181840152602081019050610d25565b50505050905090810190601f168015610d6d5780820380516001836020036101000a031916815260200191505b509250505060405180910390f35b348015610d8757600080fd5b50610d90613303565b6040518080602001828103825283818151815260200191508051906020019080838360005b83811015610dd0578082015181840152602081019050610db5565b50505050905090810190601f168015610dfd5780820380516001836020036101000a031916815260200191505b509250505060405180910390f35b348015610e1757600080fd5b50610f2660048036038101908080359060200190929190803590602001909291908035906020019092919080359060200190929190803590602001908201803590602001908080601f0160208091040260200160405190810160405280939291908181526020018383808284378201915050505050509192919290803590602001908201803590602001908080601f0160208091040260200160405190810160405280939291908181526020018383808284378201915050505050509192919290803590602001908201803590602001908080601f01602080910402602001604051908101604052809392919081815260200183838082843782019150505050505091929192905050506133a5565b005b348015610f3457600080fd5b50610f75600480360381019080803573ffffffffffffffffffffffffffffffffffffffff169060200190929190803515159060200190929190505050613e2b565b005b348015610f8357600080fd5b50611028600480360381019080803573ffffffffffffffffffffffffffffffffffffffff169060200190929190803573ffffffffffffffffffffffffffffffffffffffff16906020019092919080359060200190929190803590602001908201803590602001908080601f0160208091040260200160405190810160405280939291908181526020018383808284378201915050505050509192919290505050613f67565b005b34801561103657600080fd5b5061105560048036038101908080359060200190929190505050613f8f565b6040518080602001828103825283818151815260200191508051906020019080838360005b8381101561109557808201518184015260208101905061107a565b50505050905090810190601f1680156110c25780820380516001836020036101000a031916815260200191505b509250505060405180910390f35b3480156110dc57600080fd5b50611131600480360381019080803573ffffffffffffffffffffffffffffffffffffffff169060200190929190803573ffffffffffffffffffffffffffffffffffffffff169060200190929190505050614058565b604051808215151515815260200191505060405180910390f35b34801561115757600080fd5b5061118c600480360381019080803573ffffffffffffffffffffffffffffffffffffffff1690602001909291905050506140ec565b005b34801561119a57600080fd5b506111cf600480360381019080803573ffffffffffffffffffffffffffffffffffffffff169060200190929190505050614154565b005b3480156111dd57600080fd5b506111fc600480360381019080803590602001909291905050506141c9565b005b6000806000837bffffffffffffffffffffffffffffffffffffffffffffffffffffffff19167bffffffffffffffffffffffffffffffffffffffffffffffffffffffff1916815260200190815260200160002060009054906101000a900460ff169050919050565b606060058054600181600116156101000203166002900480601f0160208091040260200160405190810160405280929190818152602001828054600181600116156101000203166002900480156112fd5780601f106112d2576101008083540402835291602001916112fd565b820191906000526020600020905b8154815290600101906020018083116112e057829003601f168201915b5050505050905090565b60006002600083815260200190815260200160002060009054906101000a900473ffffffffffffffffffffffffffffffffffffffff169050919050565b600061134f8261203c565b90508073ffffffffffffffffffffffffffffffffffffffff168373ffffffffffffffffffffffffffffffffffffffff161415151561138c57600080fd5b8073ffffffffffffffffffffffffffffffffffffffff163373ffffffffffffffffffffffffffffffffffffffff1614806113cc57506113cb8133614058565b5b15156113d757600080fd5b826002600084815260200190815260200160002060006101000a81548173ffffffffffffffffffffffffffffffffffffffff021916908373ffffffffffffffffffffffffffffffffffffffff160217905550818373ffffffffffffffffffffffffffffffffffffffff168273ffffffffffffffffffffffffffffffffffffffff167f8c5be1e5ebec7d5bd14f71427d1e84f3dd0314c0f7b2291e5b200ac8c7c3b92560405160405180910390a4505050565b6000600980549050905090565b6301ffc9a77c01000000000000000000000000000000000000000000000000000000000281565b6114c73382614712565b15156114d257600080fd5b600073ffffffffffffffffffffffffffffffffffffffff168373ffffffffffffffffffffffffffffffffffffffff161415151561150e57600080fd5b600073ffffffffffffffffffffffffffffffffffffffff168273ffffffffffffffffffffffffffffffffffffffff161415151561154a57600080fd5b61155483826147a7565b61155e83826148aa565b6115688282614a66565b808273ffffffffffffffffffffffffffffffffffffffff168473ffffffffffffffffffffffffffffffffffffffff167fddf252ad1be2c89b69c2b068fc378daa952ba7f163c4a11628f55a4df523b3ef60405160405180910390a4505050565b60006115d383612c0c565b821015156115e057600080fd5b600760008473ffffffffffffffffffffffffffffffffffffffff1673ffffffffffffffffffffffffffffffffffffffff1681526020019081526020016000208281548110151561162c57fe5b9060005260206000200154905092915050565b6000600f80549050905090565b6060600760008373ffffffffffffffffffffffffffffffffffffffff1673ffffffffffffffffffffffffffffffffffffffff1681526020019081526020016000208054806020026020016040519081016040528092919081815260200182805480156116d757602002820191906000526020600020905b8154815260200190600101908083116116c3575b50505050509050919050565b600d60009054906101000a900473ffffffffffffffffffffffffffffffffffffffff1673ffffffffffffffffffffffffffffffffffffffff163373ffffffffffffffffffffffffffffffffffffffff1614151561173f57600080fd5b80600e60006101000a81548173ffffffffffffffffffffffffffffffffffffffff021916908373ffffffffffffffffffffffffffffffffffffffff16021790555050565b61178b615229565b600089428111151561179c57600080fd5b600d60149054906101000a900460ff161515156117b857600080fd5b610160604051908101604052803373ffffffffffffffffffffffffffffffffffffffff1681526020018d81526020018c81526020018b81526020018a1515815260200189151581526020018881526020016000815260200187815260200186815260200185815250925061198b6001600f859080600181540180825580915050906001820390600052602060002090600a02016000909192909190915060008201518160000160006101000a81548173ffffffffffffffffffffffffffffffffffffffff021916908373ffffffffffffffffffffffffffffffffffffffff16021790555060208201518160010190805190602001906118b892919061529e565b50604082015181600201556060820151816003015560808201518160040160006101000a81548160ff02191690831515021790555060a08201518160040160016101000a81548160ff02191690831515021790555060c0820151816005015560e0820151816006015561010082015181600701908051906020019061193e92919061529e565b5061012082015181600801908051906020019061195c92919061529e565b5061014082015181600901908051906020019061197a92919061529e565b505050614b3d90919063ffffffff16565b9150601060003373ffffffffffffffffffffffffffffffffffffffff1673ffffffffffffffffffffffffffffffffffffffff1681526020019081526020016000208290806001815401808255809150509060018203906000526020600020016000909192909190915055503373ffffffffffffffffffffffffffffffffffffffff167ff9314e8cf54948c70f8e19549006790795d97f358b94987a75343bddb37e4608838e8e8e88608001518960a001518e60008c61010001518d61012001518f604051808c8152602001806020018b81526020018a8152602001891515151581526020018815151515815260200187815260200186815260200180602001806020018060200185810385528f818151815260200191508051906020019080838360005b83811015611aca578082015181840152602081019050611aaf565b50505050905090810190601f168015611af75780820380516001836020036101000a031916815260200191505b50858103845288818151815260200191508051906020019080838360005b83811015611b30578082015181840152602081019050611b15565b50505050905090810190601f168015611b5d5780820380516001836020036101000a031916815260200191505b50858103835287818151815260200191508051906020019080838360005b83811015611b96578082015181840152602081019050611b7b565b50505050905090810190601f168015611bc35780820380516001836020036101000a031916815260200191505b50858103825286818151815260200191508051906020019080838360005b83811015611bfc578082015181840152602081019050611be1565b50505050905090810190601f168015611c295780820380516001836020036101000a031916815260200191505b509f5050505050505050505050505050505060405180910390a23373ffffffffffffffffffffffffffffffffffffffff167fa85f429346e301ed83bff6384aba2e26fefe226a61f9c4632262e7d396007178838e8e8e88608001518960a001518e60008c61010001518d61012001518f604051808c8152602001806020018b81526020018a8152602001891515151581526020018815151515815260200187815260200186815260200180602001806020018060200185810385528f818151815260200191508051906020019080838360005b83811015611d17578082015181840152602081019050611cfc565b50505050905090810190601f168015611d445780820380516001836020036101000a031916815260200191505b50858103845288818151815260200191508051906020019080838360005b83811015611d7d578082015181840152602081019050611d62565b50505050905090810190601f168015611daa5780820380516001836020036101000a031916815260200191505b50858103835287818151815260200191508051906020019080838360005b83811015611de3578082015181840152602081019050611dc8565b50505050905090810190601f168015611e105780820380516001836020036101000a031916815260200191505b50858103825286818151815260200191508051906020019080838360005b83811015611e49578082015181840152602081019050611e2e565b50505050905090810190601f168015611e765780820380516001836020036101000a031916815260200191505b509f5050505050505050505050505050505060405180910390a2505050505050505050505050565b600d60009054906101000a900473ffffffffffffffffffffffffffffffffffffffff1673ffffffffffffffffffffffffffffffffffffffff163373ffffffffffffffffffffffffffffffffffffffff16141515611efa57600080fd5b600d60149054906101000a900460ff161515611f1557600080fd5b6000600d60146101000a81548160ff0219169083151502179055507f7805862f689e2f13df9f062ff482ad3ad112aca9e0847911ed832e158c525b3360405160405180910390a1565b611f7a8383836020604051908101604052806000815250613f67565b505050565b6000806001600084815260200190815260200160002060009054906101000a900473ffffffffffffffffffffffffffffffffffffffff169050600073ffffffffffffffffffffffffffffffffffffffff168173ffffffffffffffffffffffffffffffffffffffff161415915050919050565b6000611ffb611489565b8210151561200857600080fd5b60098281548110151561201757fe5b90600052602060002001549050919050565b600d60149054906101000a900460ff1681565b6000806001600084815260200190815260200160002060009054906101000a900473ffffffffffffffffffffffffffffffffffffffff169050600073ffffffffffffffffffffffffffffffffffffffff168173ffffffffffffffffffffffffffffffffffffffff16141515156120b157600080fd5b80915050919050565b6120c2615229565b60006120cc61531e565b600084600f80549050811015156120e257600080fd5b600f868154811015156120f157fe5b90600052602060002090600a020160020154428111151561211157600080fd5b600d60149054906101000a900460ff1615151561212d57600080fd5b600f8781548110151561213c57fe5b90600052602060002090600a020161016060405190810160405290816000820160009054906101000a900473ffffffffffffffffffffffffffffffffffffffff1673ffffffffffffffffffffffffffffffffffffffff1673ffffffffffffffffffffffffffffffffffffffff168152602001600182018054600181600116156101000203166002900480601f0160208091040260200160405190810160405280929190818152602001828054600181600116156101000203166002900480156122465780601f1061221b57610100808354040283529160200191612246565b820191906000526020600020905b81548152906001019060200180831161222957829003601f168201915b5050505050815260200160028201548152602001600382015481526020016004820160009054906101000a900460ff161515151581526020016004820160019054906101000a900460ff161515151581526020016005820154815260200160068201548152602001600782018054600181600116156101000203166002900480601f0160208091040260200160405190810160405280929190818152602001828054600181600116156101000203166002900480156123465780601f1061231b57610100808354040283529160200191612346565b820191906000526020600020905b81548152906001019060200180831161232957829003601f168201915b50505050508152602001600882018054600181600116156101000203166002900480601f0160208091040260200160405190810160405280929190818152602001828054600181600116156101000203166002900480156123e85780601f106123bd576101008083540402835291602001916123e8565b820191906000526020600020905b8154815290600101906020018083116123cb57829003601f168201915b50505050508152602001600982018054600181600116156101000203166002900480601f01602080910402602001604051908101604052809291908181526020018280546001816001161561010002031660029004801561248a5780601f1061245f5761010080835404028352916020019161248a565b820191906000526020600020905b81548152906001019060200180831161246d57829003601f168201915b50505050508152505095508560a00151156124b6578560e001518660c001511115156124b557600080fd5b5b8560800151151561252857856060015134101515156124d457600080fd5b856000015173ffffffffffffffffffffffffffffffffffffffff166108fc87606001519081150290604051600060405180830381858888f19350505050158015612522573d6000803e3d6000fd5b50612670565b600e60009054906101000a900473ffffffffffffffffffffffffffffffffffffffff1673ffffffffffffffffffffffffffffffffffffffff166323b872dd33886000015189606001516040518463ffffffff167c0100000000000000000000000000000000000000000000000000000000028152600401808473ffffffffffffffffffffffffffffffffffffffff1673ffffffffffffffffffffffffffffffffffffffff1681526020018373ffffffffffffffffffffffffffffffffffffffff1673ffffffffffffffffffffffffffffffffffffffff1681526020018281526020019350505050602060405180830381600087803b15801561262957600080fd5b505af115801561263d573d6000803e3d6000fd5b505050506040513d602081101561265357600080fd5b8101908080519060200190929190505050151561266f57600080fd5b5b61268860018760e00151614b5690919063ffffffff16565b945084600f8881548110151561269a57fe5b90600052602060002090600a020160060181905550604080519081016040528088815260200186815250935061271d6001600c869080600181540180825580915050906001820390600052602060002090600202016000909192909190915060008201518160000155602082015181600101555050614b3d90919063ffffffff16565b92506127293384614b72565b863373ffffffffffffffffffffffffffffffffffffffff167f97688cba7bf855e0de150e78d076aad5556007b5c34a8e89612b5f2085d0efbf856040518082815260200191505060405180910390a350505050505050565b6060601060008373ffffffffffffffffffffffffffffffffffffffff1673ffffffffffffffffffffffffffffffffffffffff16815260200190815260200160002080548060200260200160405190810160405280929190818152602001828054801561280c57602002820191906000526020600020905b8154815260200190600101908083116127f8575b50505050509050919050565b60606000806000806000806060806000612830615229565b8b600f805490508110151561284457600080fd5b600f8d81548110151561285357fe5b90600052602060002090600a020161016060405190810160405290816000820160009054906101000a900473ffffffffffffffffffffffffffffffffffffffff1673ffffffffffffffffffffffffffffffffffffffff1673ffffffffffffffffffffffffffffffffffffffff168152602001600182018054600181600116156101000203166002900480601f01602080910402602001604051908101604052809291908181526020018280546001816001161561010002031660029004801561295d5780601f106129325761010080835404028352916020019161295d565b820191906000526020600020905b81548152906001019060200180831161294057829003601f168201915b5050505050815260200160028201548152602001600382015481526020016004820160009054906101000a900460ff161515151581526020016004820160019054906101000a900460ff161515151581526020016005820154815260200160068201548152602001600782018054600181600116156101000203166002900480601f016020809104026020016040519081016040528092919081815260200182805460018160011615610100020316600290048015612a5d5780601f10612a3257610100808354040283529160200191612a5d565b820191906000526020600020905b815481529060010190602001808311612a4057829003601f168201915b50505050508152602001600882018054600181600116156101000203166002900480601f016020809104026020016040519081016040528092919081815260200182805460018160011615610100020316600290048015612aff5780601f10612ad457610100808354040283529160200191612aff565b820191906000526020600020905b815481529060010190602001808311612ae257829003601f168201915b50505050508152602001600982018054600181600116156101000203166002900480601f016020809104026020016040519081016040528092919081815260200182805460018160011615610100020316600290048015612ba15780601f10612b7657610100808354040283529160200191612ba1565b820191906000526020600020905b815481529060010190602001808311612b8457829003601f168201915b505050505081525050915081602001518260400151836060015184608001518560a001518660c001518760e001518861010001518961012001518a600001518999508292508191509b509b509b509b509b509b509b509b509b509b5050509193959799509193959799565b60008073ffffffffffffffffffffffffffffffffffffffff168273ffffffffffffffffffffffffffffffffffffffff1614151515612c4957600080fd5b600360008373ffffffffffffffffffffffffffffffffffffffff1673ffffffffffffffffffffffffffffffffffffffff168152602001908152602001600020549050919050565b600d60009054906101000a900473ffffffffffffffffffffffffffffffffffffffff1673ffffffffffffffffffffffffffffffffffffffff163373ffffffffffffffffffffffffffffffffffffffff16141515612cec57600080fd5b600d60009054906101000a900473ffffffffffffffffffffffffffffffffffffffff1673ffffffffffffffffffffffffffffffffffffffff167ff8df31144d9c2f0f6b59d69b8b98abd5459d07f2742c4df920b25aae33c6482060405160405180910390a26000600d60006101000a81548173ffffffffffffffffffffffffffffffffffffffff021916908373ffffffffffffffffffffffffffffffffffffffff160217905550565b600080612da061531e565b600c8054905084101515612db357600080fd5b600c84815481101515612dc257fe5b9060005260206000209060020201604080519081016040529081600082015481526020016001820154815250509050806000015181602001519250925050915091565b600d60009054906101000a900473ffffffffffffffffffffffffffffffffffffffff1673ffffffffffffffffffffffffffffffffffffffff163373ffffffffffffffffffffffffffffffffffffffff16141515612e6157600080fd5b600d60009054906101000a900473ffffffffffffffffffffffffffffffffffffffff1673ffffffffffffffffffffffffffffffffffffffff16ff5b600d60009054906101000a900473ffffffffffffffffffffffffffffffffffffffff1673ffffffffffffffffffffffffffffffffffffffff163373ffffffffffffffffffffffffffffffffffffffff16141515612ef857600080fd5b600d60149054906101000a900460ff16151515612f1457600080fd5b6001600d60146101000a81548160ff0219169083151502179055507f6985a02210a168e66602d3235cb6db0e70f92b3ba4d376a33c0f3d9434bff62560405160405180910390a1565b600d60009054906101000a900473ffffffffffffffffffffffffffffffffffffffff1681565b6060612f8d615229565b600f83815481101515612f9c57fe5b90600052602060002090600a020161016060405190810160405290816000820160009054906101000a900473ffffffffffffffffffffffffffffffffffffffff1673ffffffffffffffffffffffffffffffffffffffff1673ffffffffffffffffffffffffffffffffffffffff168152602001600182018054600181600116156101000203166002900480601f0160208091040260200160405190810160405280929190818152602001828054600181600116156101000203166002900480156130a65780601f1061307b576101008083540402835291602001916130a6565b820191906000526020600020905b81548152906001019060200180831161308957829003601f168201915b5050505050815260200160028201548152602001600382015481526020016004820160009054906101000a900460ff161515151581526020016004820160019054906101000a900460ff161515151581526020016005820154815260200160068201548152602001600782018054600181600116156101000203166002900480601f0160208091040260200160405190810160405280929190818152602001828054600181600116156101000203166002900480156131a65780601f1061317b576101008083540402835291602001916131a6565b820191906000526020600020905b81548152906001019060200180831161318957829003601f168201915b50505050508152602001600882018054600181600116156101000203166002900480601f0160208091040260200160405190810160405280929190818152602001828054600181600116156101000203166002900480156132485780601f1061321d57610100808354040283529160200191613248565b820191906000526020600020905b81548152906001019060200180831161322b57829003601f168201915b50505050508152602001600982018054600181600116156101000203166002900480601f0160208091040260200160405190810160405280929190818152602001828054600181600116156101000203166002900480156132ea5780601f106132bf576101008083540402835291602001916132ea565b820191906000526020600020905b8154815290600101906020018083116132cd57829003601f168201915b5050505050815250509050806101400151915050919050565b606060068054600181600116156101000203166002900480601f01602080910402602001604051908101604052809291908181526020018280546001816001161561010002031660029004801561339b5780601f106133705761010080835404028352916020019161339b565b820191906000526020600020905b81548152906001019060200180831161337e57829003601f168201915b5050505050905090565b6133ad615229565b8642811115156133bc57600080fd5b600d60149054906101000a900460ff161515156133d857600080fd5b88600f80549050811015156133ec57600080fd5b600073ffffffffffffffffffffffffffffffffffffffff16600f8b81548110151561341357fe5b90600052602060002090600a020160000160009054906101000a900473ffffffffffffffffffffffffffffffffffffffff1673ffffffffffffffffffffffffffffffffffffffff16141515156134d1576040517f08c379a00000000000000000000000000000000000000000000000000000000081526004018080602001828103825260128152602001807f4576656e74206861732064656c657465642e000000000000000000000000000081525060200191505060405180910390fd5b3373ffffffffffffffffffffffffffffffffffffffff16600f8b8154811015156134f757fe5b90600052602060002090600a020160000160009054906101000a900473ffffffffffffffffffffffffffffffffffffffff1673ffffffffffffffffffffffffffffffffffffffff161415156135b4576040517f08c379a000000000000000000000000000000000000000000000000000000000815260040180806020018281038252601c8152602001807f4f6e6c79204576656e74206f776e65722063616e206163636573732e0000000081525060200191505060405180910390fd5b6000600f8b8154811015156135c557fe5b90600052602060002090600a020160060154141515613672576040517f08c379a000000000000000000000000000000000000000000000000000000000815260040180806020018281038252603c8152602001807f4576656e74207469636b65747320686173206265656e20736f6c6420736f207981526020017f6f752063616e6e6f742064656c6574652074686973206576656e742e0000000081525060400191505060405180910390fd5b61016060405190810160405280600f8c81548110151561368e57fe5b90600052602060002090600a020160000160009054906101000a900473ffffffffffffffffffffffffffffffffffffffff1673ffffffffffffffffffffffffffffffffffffffff168152602001600f8c8154811015156136ea57fe5b90600052602060002090600a02016001018054600181600116156101000203166002900480601f01602080910402602001604051908101604052809291908181526020018280546001816001161561010002031660029004801561378f5780601f106137645761010080835404028352916020019161378f565b820191906000526020600020905b81548152906001019060200180831161377257829003601f168201915b505050505081526020018a8152602001898152602001600f8c8154811015156137b457fe5b90600052602060002090600a020160040160009054906101000a900460ff1615158152602001600f8c8154811015156137e957fe5b90600052602060002090600a020160040160019054906101000a900460ff1615158152602001888152602001600f8c81548110151561382457fe5b90600052602060002090600a020160060154815260200187815260200186815260200185815250925082600f8b81548110151561385d57fe5b90600052602060002090600a020160008201518160000160006101000a81548173ffffffffffffffffffffffffffffffffffffffff021916908373ffffffffffffffffffffffffffffffffffffffff16021790555060208201518160010190805190602001906138ce92919061529e565b50604082015181600201556060820151816003015560808201518160040160006101000a81548160ff02191690831515021790555060a08201518160040160016101000a81548160ff02191690831515021790555060c0820151816005015560e0820151816006015561010082015181600701908051906020019061395492919061529e565b5061012082015181600801908051906020019061397292919061529e565b5061014082015181600901908051906020019061399092919061529e565b509050507fd07eba8017737869b1650e24b1be6eb385752b9b7a7d169cc0878bbbe21b6fe58a8460200151856040015186606001518760c001518861010001518961012001518a6101400151604051808981526020018060200188815260200187815260200186815260200180602001806020018060200185810385528c818151815260200191508051906020019080838360005b83811015613a40578082015181840152602081019050613a25565b50505050905090810190601f168015613a6d5780820380516001836020036101000a031916815260200191505b50858103845288818151815260200191508051906020019080838360005b83811015613aa6578082015181840152602081019050613a8b565b50505050905090810190601f168015613ad35780820380516001836020036101000a031916815260200191505b50858103835287818151815260200191508051906020019080838360005b83811015613b0c578082015181840152602081019050613af1565b50505050905090810190601f168015613b395780820380516001836020036101000a031916815260200191505b50858103825286818151815260200191508051906020019080838360005b83811015613b72578082015181840152602081019050613b57565b50505050905090810190601f168015613b9f5780820380516001836020036101000a031916815260200191505b509c5050505050505050505050505060405180910390a1826000015173ffffffffffffffffffffffffffffffffffffffff167fa85f429346e301ed83bff6384aba2e26fefe226a61f9c4632262e7d3960071788b85602001518660400151876060015188608001518960a001518a60c001518b60e001518c61010001518d61012001518e6101400151604051808c8152602001806020018b81526020018a8152602001891515151581526020018815151515815260200187815260200186815260200180602001806020018060200185810385528f818151815260200191508051906020019080838360005b83811015613ca6578082015181840152602081019050613c8b565b50505050905090810190601f168015613cd35780820380516001836020036101000a031916815260200191505b50858103845288818151815260200191508051906020019080838360005b83811015613d0c578082015181840152602081019050613cf1565b50505050905090810190601f168015613d395780820380516001836020036101000a031916815260200191505b50858103835287818151815260200191508051906020019080838360005b83811015613d72578082015181840152602081019050613d57565b50505050905090810190601f168015613d9f5780820380516001836020036101000a031916815260200191505b50858103825286818151815260200191508051906020019080838360005b83811015613dd8578082015181840152602081019050613dbd565b50505050905090810190601f168015613e055780820380516001836020036101000a031916815260200191505b509f5050505050505050505050505050505060405180910390a250505050505050505050565b3373ffffffffffffffffffffffffffffffffffffffff168273ffffffffffffffffffffffffffffffffffffffff1614151515613e6657600080fd5b80600460003373ffffffffffffffffffffffffffffffffffffffff1673ffffffffffffffffffffffffffffffffffffffff16815260200190815260200160002060008473ffffffffffffffffffffffffffffffffffffffff1673ffffffffffffffffffffffffffffffffffffffff16815260200190815260200160002060006101000a81548160ff0219169083151502179055508173ffffffffffffffffffffffffffffffffffffffff163373ffffffffffffffffffffffffffffffffffffffff167f17307eab39ab6107e8899845ad3d59bd9653f200f220920489ca2b5937696c3183604051808215151515815260200191505060405180910390a35050565b613f728484846114bd565b613f7e84848484614bc9565b1515613f8957600080fd5b50505050565b6060613f9a82611f7f565b1515613fa557600080fd5b600b60008381526020019081526020016000208054600181600116156101000203166002900480601f01602080910402602001604051908101604052809291908181526020018280546001816001161561010002031660029004801561404c5780601f106140215761010080835404028352916020019161404c565b820191906000526020600020905b81548152906001019060200180831161402f57829003601f168201915b50505050509050919050565b6000600460008473ffffffffffffffffffffffffffffffffffffffff1673ffffffffffffffffffffffffffffffffffffffff16815260200190815260200160002060008373ffffffffffffffffffffffffffffffffffffffff1673ffffffffffffffffffffffffffffffffffffffff16815260200190815260200160002060009054906101000a900460ff16905092915050565b600d60009054906101000a900473ffffffffffffffffffffffffffffffffffffffff1673ffffffffffffffffffffffffffffffffffffffff163373ffffffffffffffffffffffffffffffffffffffff1614151561414857600080fd5b61415181614deb565b50565b600d60009054906101000a900473ffffffffffffffffffffffffffffffffffffffff1673ffffffffffffffffffffffffffffffffffffffff163373ffffffffffffffffffffffffffffffffffffffff161415156141b057600080fd5b8073ffffffffffffffffffffffffffffffffffffffff16ff5b80600f80549050811015156141dd57600080fd5b600073ffffffffffffffffffffffffffffffffffffffff16600f8381548110151561420457fe5b90600052602060002090600a020160000160009054906101000a900473ffffffffffffffffffffffffffffffffffffffff1673ffffffffffffffffffffffffffffffffffffffff16141515156142c2576040517f08c379a00000000000000000000000000000000000000000000000000000000081526004018080602001828103825260128152602001807f4576656e74206861732064656c657465642e000000000000000000000000000081525060200191505060405180910390fd5b3373ffffffffffffffffffffffffffffffffffffffff16600f838154811015156142e857fe5b90600052602060002090600a020160000160009054906101000a900473ffffffffffffffffffffffffffffffffffffffff1673ffffffffffffffffffffffffffffffffffffffff161415156143a5576040517f08c379a000000000000000000000000000000000000000000000000000000000815260040180806020018281038252601c8152602001807f4f6e6c79204576656e74206f776e65722063616e2064656c6574652e0000000081525060200191505060405180910390fd5b6000600f838154811015156143b657fe5b90600052602060002090600a020160060154141515614463576040517f08c379a000000000000000000000000000000000000000000000000000000000815260040180806020018281038252603c8152602001807f4576656e74207469636b65747320686173206265656e20736f6c6420736f207981526020017f6f752063616e6e6f742064656c6574652074686973206576656e742e0000000081525060400191505060405180910390fd5b6000600f8381548110151561447457fe5b90600052602060002090600a020160000160006101000a81548173ffffffffffffffffffffffffffffffffffffffff021916908373ffffffffffffffffffffffffffffffffffffffff1602179055506020604051908101604052806000815250600f838154811015156144e357fe5b90600052602060002090600a02016001019080519060200190614507929190615338565b506000600f8381548110151561451957fe5b90600052602060002090600a0201600201819055506000600f8381548110151561453f57fe5b90600052602060002090600a0201600301819055506000600f8381548110151561456557fe5b90600052602060002090600a020160040160006101000a81548160ff0219169083151502179055506000600f8381548110151561459e57fe5b90600052602060002090600a020160040160016101000a81548160ff0219169083151502179055506000600f838154811015156145d757fe5b90600052602060002090600a0201600501819055506000600f838154811015156145fd57fe5b90600052602060002090600a0201600601819055506020604051908101604052806000815250600f8381548110151561463257fe5b90600052602060002090600a02016007019080519060200190614656929190615338565b506020604051908101604052806000815250600f8381548110151561467757fe5b90600052602060002090600a0201600801908051906020019061469b929190615338565b506020604051908101604052806000815250600f838154811015156146bc57fe5b90600052602060002090600a020160090190805190602001906146e0929190615338565b50817f04c2d86b558533c9e99f34fdd95c51c75bad949c32b790c2c148ef8d4f7ae69a60405160405180910390a25050565b60008061471e8361203c565b90508073ffffffffffffffffffffffffffffffffffffffff168473ffffffffffffffffffffffffffffffffffffffff16148061478d57508373ffffffffffffffffffffffffffffffffffffffff1661477584611307565b73ffffffffffffffffffffffffffffffffffffffff16145b8061479e575061479d8185614058565b5b91505092915050565b8173ffffffffffffffffffffffffffffffffffffffff166147c78261203c565b73ffffffffffffffffffffffffffffffffffffffff161415156147e957600080fd5b600073ffffffffffffffffffffffffffffffffffffffff166002600083815260200190815260200160002060009054906101000a900473ffffffffffffffffffffffffffffffffffffffff1673ffffffffffffffffffffffffffffffffffffffff161415156148a65760006002600083815260200190815260200160002060006101000a81548173ffffffffffffffffffffffffffffffffffffffff021916908373ffffffffffffffffffffffffffffffffffffffff1602179055505b5050565b60008060006148b98585614ee7565b600860008581526020019081526020016000205492506149256001600760008873ffffffffffffffffffffffffffffffffffffffff1673ffffffffffffffffffffffffffffffffffffffff16815260200190815260200160002080549050614b3d90919063ffffffff16565b9150600760008673ffffffffffffffffffffffffffffffffffffffff1673ffffffffffffffffffffffffffffffffffffffff1681526020019081526020016000208281548110151561497357fe5b9060005260206000200154905080600760008773ffffffffffffffffffffffffffffffffffffffff1673ffffffffffffffffffffffffffffffffffffffff168152602001908152602001600020848154811015156149cd57fe5b9060005260206000200181905550600760008673ffffffffffffffffffffffffffffffffffffffff1673ffffffffffffffffffffffffffffffffffffffff168152602001908152602001600020805480919060019003614a2d91906153b8565b50600060086000868152602001908152602001600020819055508260086000838152602001908152602001600020819055505050505050565b6000614a728383615016565b600760008473ffffffffffffffffffffffffffffffffffffffff1673ffffffffffffffffffffffffffffffffffffffff168152602001908152602001600020805490509050600760008473ffffffffffffffffffffffffffffffffffffffff1673ffffffffffffffffffffffffffffffffffffffff168152602001908152602001600020829080600181540180825580915050906001820390600052602060002001600090919290919091505550806008600084815260200190815260200160002081905550505050565b6000828211151515614b4b57fe5b818303905092915050565b60008183019050828110151515614b6957fe5b80905092915050565b614b7c8282615170565b600980549050600a60008381526020019081526020016000208190555060098190806001815401808255809150509060018203906000526020600020016000909192909190915055505050565b600080614beb8573ffffffffffffffffffffffffffffffffffffffff16615216565b1515614bfa5760019150614de2565b8473ffffffffffffffffffffffffffffffffffffffff1663150b7a02338887876040518563ffffffff167c0100000000000000000000000000000000000000000000000000000000028152600401808573ffffffffffffffffffffffffffffffffffffffff1673ffffffffffffffffffffffffffffffffffffffff1681526020018473ffffffffffffffffffffffffffffffffffffffff1673ffffffffffffffffffffffffffffffffffffffff16815260200183815260200180602001828103825283818151815260200191508051906020019080838360005b83811015614cef578082015181840152602081019050614cd4565b50505050905090810190601f168015614d1c5780820380516001836020036101000a031916815260200191505b5095505050505050602060405180830381600087803b158015614d3e57600080fd5b505af1158015614d52573d6000803e3d6000fd5b505050506040513d6020811015614d6857600080fd5b8101908080519060200190929190505050905063150b7a027c0100000000000000000000000000000000000000000000000000000000027bffffffffffffffffffffffffffffffffffffffffffffffffffffffff1916817bffffffffffffffffffffffffffffffffffffffffffffffffffffffff19161491505b50949350505050565b600073ffffffffffffffffffffffffffffffffffffffff168173ffffffffffffffffffffffffffffffffffffffff1614151515614e2757600080fd5b8073ffffffffffffffffffffffffffffffffffffffff16600d60009054906101000a900473ffffffffffffffffffffffffffffffffffffffff1673ffffffffffffffffffffffffffffffffffffffff167f8be0079c531659141344cd1fd0a4f28419497f9722a3daafe3b4186f6b6457e060405160405180910390a380600d60006101000a81548173ffffffffffffffffffffffffffffffffffffffff021916908373ffffffffffffffffffffffffffffffffffffffff16021790555050565b8173ffffffffffffffffffffffffffffffffffffffff16614f078261203c565b73ffffffffffffffffffffffffffffffffffffffff16141515614f2957600080fd5b614f7c6001600360008573ffffffffffffffffffffffffffffffffffffffff1673ffffffffffffffffffffffffffffffffffffffff16815260200190815260200160002054614b3d90919063ffffffff16565b600360008473ffffffffffffffffffffffffffffffffffffffff1673ffffffffffffffffffffffffffffffffffffffff1681526020019081526020016000208190555060006001600083815260200190815260200160002060006101000a81548173ffffffffffffffffffffffffffffffffffffffff021916908373ffffffffffffffffffffffffffffffffffffffff1602179055505050565b600073ffffffffffffffffffffffffffffffffffffffff166001600083815260200190815260200160002060009054906101000a900473ffffffffffffffffffffffffffffffffffffffff1673ffffffffffffffffffffffffffffffffffffffff1614151561508457600080fd5b816001600083815260200190815260200160002060006101000a81548173ffffffffffffffffffffffffffffffffffffffff021916908373ffffffffffffffffffffffffffffffffffffffff1602179055506151296001600360008573ffffffffffffffffffffffffffffffffffffffff1673ffffffffffffffffffffffffffffffffffffffff16815260200190815260200160002054614b5690919063ffffffff16565b600360008473ffffffffffffffffffffffffffffffffffffffff1673ffffffffffffffffffffffffffffffffffffffff168152602001908152602001600020819055505050565b600073ffffffffffffffffffffffffffffffffffffffff168273ffffffffffffffffffffffffffffffffffffffff16141515156151ac57600080fd5b6151b68282614a66565b808273ffffffffffffffffffffffffffffffffffffffff16600073ffffffffffffffffffffffffffffffffffffffff167fddf252ad1be2c89b69c2b068fc378daa952ba7f163c4a11628f55a4df523b3ef60405160405180910390a45050565b600080823b905060008111915050919050565b61016060405190810160405280600073ffffffffffffffffffffffffffffffffffffffff16815260200160608152602001600081526020016000815260200160001515815260200160001515815260200160008152602001600081526020016060815260200160608152602001606081525090565b828054600181600116156101000203166002900490600052602060002090601f016020900481019282601f106152df57805160ff191683800117855561530d565b8280016001018555821561530d579182015b8281111561530c5782518255916020019190600101906152f1565b5b50905061531a91906153e4565b5090565b604080519081016040528060008152602001600081525090565b828054600181600116156101000203166002900490600052602060002090601f016020900481019282601f1061537957805160ff19168380011785556153a7565b828001600101855582156153a7579182015b828111156153a657825182559160200191906001019061538b565b5b5090506153b491906153e4565b5090565b8154818355818111156153df578183600052602060002091820191016153de91906153e4565b5b505050565b61540691905b808211156154025760008160009055506001016153ea565b5090565b905600a165627a7a72305820817a14b5932dfee182dfdcb1928c652434f2fbd13249063e4acc3f3cc8cd44860029",
  "compiler": {
    "name": "solc",
    "version": "0.4.24+commit.e67f0147.Emscripten.clang",
    "optimizer": {
      "enabled": false,
      "runs": 200
    },
    "evmVersion": "byzantium"
  }
}