{
  "fileName": "DaoEvents.sol",
  "contractName": "DaoEvents",
  "source": "// SPDX-License-Identifier: UNLICENSED\n\npragma solidity ^0.5.0;\n\nimport \"./EventTicket.sol\";\nimport \"@openzeppelin/contracts/ownership/Ownable.sol\";\nimport \"@openzeppelin/contracts/token/ERC20/IERC20.sol\";\nimport \"@openzeppelin/contracts/math/SafeMath.sol\";\n\ncontract DaoEvents is EventTicket, Ownable {\n    using SafeMath for uint256;\n    \n    uint256 public _eventIds;\n    uint256 public _ticketIds;\n    address tokenAddress;\n    \n    struct Event {\n        string name;\n        uint time;\n        uint price;\n        bool token;\n        bool limited;\n        uint seats;\n        uint sold;\n        string ipfs;\n        string category;\n        address payable owner;\n    }\n    // Mapping from owner to list of owned events IDs.\n    mapping(address => uint256[]) private ownedEvents;\n    mapping(uint256 => uint256) public eventRevenue;\n    mapping(uint256 => Event) public events;\n\n    event CreatedEvent(uint256 eventId, string name ,uint256 time, uint256 price, bool token, bool limited, uint256 seats, uint256 sold, string ipfs, string category, address indexed owner);\n    event SoldTicket(address indexed buyer, uint256 indexed eventId, uint256 ticketId);\n    event UpdatedEvent(uint256 eventId,uint256 time, uint256 price, uint256 seats, string ipfs, string category);\n    event NewAndUpdatedEvent(uint256 eventId, string name ,uint256 time, uint256 price, bool token, bool limited, uint256 seats, uint256 sold, string ipfs, string category, address indexed owner);\n    event DeletedEvent(uint256 indexed eventId);\n    \n\tconstructor(address _token) public {\n        tokenAddress = _token;\n    }\n\n    modifier goodTime(uint256 _time) {\n        require(_time > block.timestamp, \"Invalid Timestamp.\");\n        _;\n    }\n\n    modifier eventExist(uint256 _id) {\n        require(_id <= _eventIds, \"Event does not exist.\");\n        _;\n    }\n\n    function chengeToken(address _token) public onlyOwner() {\n        tokenAddress = _token;\n    }\n\n    function createEvent(\n        string memory _name,\n        uint256 _time,\n        uint256 _price,\n        bool _token,\n        bool _limited,\n        uint256 _seats,\n        string memory _ipfs,\n        string memory _category\n    )\n        goodTime(_time)\n        public\n    {\n        Event memory _event;\n        _event.name = _name;\n        _event.time = _time;\n        _event.price = _price;\n        _event.token = _token;\n        _event.limited = _limited;\n        _event.seats = _seats;\n        _event.sold = 0;\n        _event.ipfs = _ipfs;\n        _event.category = _category;\n        _event.owner = msg.sender;\n        _eventIds++;\n        uint256 _eventId = _eventIds;\n        events[_eventId] = _event;\n        ownedEvents[msg.sender].push(_eventId);\n        \n\t\temit CreatedEvent(_eventId, _event.name, _event.time, _event.price, _event.token, _event.limited, _event.seats, 0, _event.ipfs, _event.category, msg.sender);\n        emit NewAndUpdatedEvent(_eventId, _event.name, _event.time, _event.price, _event.token, _event.limited, _event.seats, 0, _event.ipfs, _event.category, msg.sender);\n    }\n\n    function updateEvent(\n        uint256 _eventId,\n        uint256 _time,\n        uint256 _price,\n        bool _token,\n        bool _limited,\n        uint256 _seats,\n        string memory _ipfs,\n        string memory _category\n    ) \n        goodTime(_time)\n        eventExist(_eventId)\n        public\n    {\n        require(events[_eventId].owner != address(0), \"Event has deleted.\");\n        require(events[_eventId].owner == msg.sender, \"Only Event owner can access.\");\n        events[_eventId].time = _time;\n        events[_eventId].price = _price;\n        events[_eventId].token = _token;\n        events[_eventId].limited = _limited;\n        events[_eventId].seats = _seats;\n        events[_eventId].ipfs = _ipfs;\n        events[_eventId].category = _category;\n        Event memory _event = events[_eventId];\n        \n\t\temit UpdatedEvent(_eventId, _event.time, _event.price, _event.seats, _event.ipfs, _event.category);\n        emit NewAndUpdatedEvent(_eventId, _event.name, _event.time, _event.price, _event.token, _event.limited, _event.seats, _event.sold, _event.ipfs, _event.category, msg.sender);\n    }\n\n    function deleteEvent(uint256 _id) public eventExist(_id) {\n        require(events[_id].owner != address(0), \"Event has deleted.\");\n        require(events[_id].owner == msg.sender, \"Only Event owner can delete.\");\n        require(events[_id].sold == 0, \"Event tickets has been sold so you cannot delete this event.\");\n        bool found = false;\n        \n\t\tfor(uint256 i = 0; i < ownedEvents[msg.sender].length; i++) {\n            if(_id == ownedEvents[msg.sender][i]) {\n                delete ownedEvents[msg.sender][i];\n                found = true;\n            }\n        }\n        require(found,\"_id does not exist for this user\");\n        events[_id].name = '';\n        events[_id].time = 0;\n        events[_id].price = 0;\n        events[_id].token = false;\n        events[_id].limited = false;\n        events[_id].seats = 0;\n        events[_id].sold = 0;\n        events[_id].ipfs = '';\n        events[_id].category = '';\n        events[_id].owner = address(0);\n        \n\t\temit DeletedEvent(_id);\n    }\n\n    function eventsOf(address _owner) public view returns(uint256[] memory) {\n        return ownedEvents[_owner];\n    }\n\t\n    function ticketsOf(address owner) external view returns(uint256[] memory) {\n        uint256 tokenCount = balanceOf(owner);\n        \n        if (tokenCount == 0) {\n            return new uint256[](0);\n        } else {\n            uint256[] memory result = new uint256[](tokenCount);\n            uint256 totalTickets = _ticketIds;\n            uint256 resultIndex = 0;\n            \n            uint256 ticketId;\n            \n            for (ticketId = 1; ticketId <= totalTickets; ticketId++) {\n                if (ownerOf(ticketId) == owner) {\n                    result[resultIndex] = ticketId ;\n                    resultIndex++;\n                }\n            }\n            \n            return result;\n        }\n    }\n\n    function getEventsCount() public view returns(uint256) {\n        return _eventIds;\n    }\n\n    function buyTicket(uint256 _eventId)\n        public\n        payable\n        eventExist(_eventId)\n        goodTime(events[_eventId].time)\n    {\n        Event memory _event = events[_eventId];\n        if (_event.limited) require(_event.seats > _event.sold);\n        if (!_event.token) {\n            require(msg.value >= _event.price);\n            _event.owner.transfer(_event.price);\n            \n        } else {\n            require(IERC20(tokenAddress).transferFrom(msg.sender, _event.owner, _event.price),\"\");            \n            eventRevenue[_eventId]= eventRevenue[_eventId].add(_event.price);\n        }\n        events[_eventId].sold = _event.sold.add(1);\n\n        Ticket memory _ticket = Ticket({\n            event_id: _eventId,\n            seat: events[_eventId].sold \n        });\n        _ticketIds++;\n        uint _ticketId = _ticketIds;\n        tickets.push(_ticket);\n        _mint(msg.sender, _ticketId);\n        \n        emit SoldTicket(msg.sender, _eventId, _ticketId);   \n        emitUpdatestEvent(_eventId);\n    }\n    \n    function emitUpdatestEvent(uint256 _eventId) private{\n         Event memory _event = events[_eventId];\n         emit NewAndUpdatedEvent(_eventId, _event.name, _event.time, _event.price, _event.token, _event.limited, _event.seats, _event.sold, _event.ipfs, _event.category, _event.owner);\n    }\n}",
  "sourcePath": "contracts/DaoEvents.sol",
  "abi": [
    {
      "inputs": [
        {
          "internalType": "address",
          "name": "_token",
          "type": "address"
        }
      ],
      "payable": false,
      "stateMutability": "nonpayable",
      "type": "constructor"
    },
    {
      "anonymous": false,
      "inputs": [
        {
          "indexed": true,
          "internalType": "address",
          "name": "owner",
          "type": "address"
        },
        {
          "indexed": true,
          "internalType": "address",
          "name": "approved",
          "type": "address"
        },
        {
          "indexed": true,
          "internalType": "uint256",
          "name": "tokenId",
          "type": "uint256"
        }
      ],
      "name": "Approval",
      "type": "event"
    },
    {
      "anonymous": false,
      "inputs": [
        {
          "indexed": true,
          "internalType": "address",
          "name": "owner",
          "type": "address"
        },
        {
          "indexed": true,
          "internalType": "address",
          "name": "operator",
          "type": "address"
        },
        {
          "indexed": false,
          "internalType": "bool",
          "name": "approved",
          "type": "bool"
        }
      ],
      "name": "ApprovalForAll",
      "type": "event"
    },
    {
      "anonymous": false,
      "inputs": [
        {
          "indexed": false,
          "internalType": "uint256",
          "name": "eventId",
          "type": "uint256"
        },
        {
          "indexed": false,
          "internalType": "string",
          "name": "name",
          "type": "string"
        },
        {
          "indexed": false,
          "internalType": "uint256",
          "name": "time",
          "type": "uint256"
        },
        {
          "indexed": false,
          "internalType": "uint256",
          "name": "price",
          "type": "uint256"
        },
        {
          "indexed": false,
          "internalType": "bool",
          "name": "token",
          "type": "bool"
        },
        {
          "indexed": false,
          "internalType": "bool",
          "name": "limited",
          "type": "bool"
        },
        {
          "indexed": false,
          "internalType": "uint256",
          "name": "seats",
          "type": "uint256"
        },
        {
          "indexed": false,
          "internalType": "uint256",
          "name": "sold",
          "type": "uint256"
        },
        {
          "indexed": false,
          "internalType": "string",
          "name": "ipfs",
          "type": "string"
        },
        {
          "indexed": false,
          "internalType": "string",
          "name": "category",
          "type": "string"
        },
        {
          "indexed": true,
          "internalType": "address",
          "name": "owner",
          "type": "address"
        }
      ],
      "name": "CreatedEvent",
      "type": "event"
    },
    {
      "anonymous": false,
      "inputs": [
        {
          "indexed": true,
          "internalType": "uint256",
          "name": "eventId",
          "type": "uint256"
        }
      ],
      "name": "DeletedEvent",
      "type": "event"
    },
    {
      "anonymous": false,
      "inputs": [
        {
          "indexed": false,
          "internalType": "uint256",
          "name": "eventId",
          "type": "uint256"
        },
        {
          "indexed": false,
          "internalType": "string",
          "name": "name",
          "type": "string"
        },
        {
          "indexed": false,
          "internalType": "uint256",
          "name": "time",
          "type": "uint256"
        },
        {
          "indexed": false,
          "internalType": "uint256",
          "name": "price",
          "type": "uint256"
        },
        {
          "indexed": false,
          "internalType": "bool",
          "name": "token",
          "type": "bool"
        },
        {
          "indexed": false,
          "internalType": "bool",
          "name": "limited",
          "type": "bool"
        },
        {
          "indexed": false,
          "internalType": "uint256",
          "name": "seats",
          "type": "uint256"
        },
        {
          "indexed": false,
          "internalType": "uint256",
          "name": "sold",
          "type": "uint256"
        },
        {
          "indexed": false,
          "internalType": "string",
          "name": "ipfs",
          "type": "string"
        },
        {
          "indexed": false,
          "internalType": "string",
          "name": "category",
          "type": "string"
        },
        {
          "indexed": true,
          "internalType": "address",
          "name": "owner",
          "type": "address"
        }
      ],
      "name": "NewAndUpdatedEvent",
      "type": "event"
    },
    {
      "anonymous": false,
      "inputs": [
        {
          "indexed": true,
          "internalType": "address",
          "name": "previousOwner",
          "type": "address"
        },
        {
          "indexed": true,
          "internalType": "address",
          "name": "newOwner",
          "type": "address"
        }
      ],
      "name": "OwnershipTransferred",
      "type": "event"
    },
    {
      "anonymous": false,
      "inputs": [
        {
          "indexed": true,
          "internalType": "address",
          "name": "buyer",
          "type": "address"
        },
        {
          "indexed": true,
          "internalType": "uint256",
          "name": "eventId",
          "type": "uint256"
        },
        {
          "indexed": false,
          "internalType": "uint256",
          "name": "ticketId",
          "type": "uint256"
        }
      ],
      "name": "SoldTicket",
      "type": "event"
    },
    {
      "anonymous": false,
      "inputs": [
        {
          "indexed": true,
          "internalType": "address",
          "name": "from",
          "type": "address"
        },
        {
          "indexed": true,
          "internalType": "address",
          "name": "to",
          "type": "address"
        },
        {
          "indexed": true,
          "internalType": "uint256",
          "name": "tokenId",
          "type": "uint256"
        }
      ],
      "name": "Transfer",
      "type": "event"
    },
    {
      "anonymous": false,
      "inputs": [
        {
          "indexed": false,
          "internalType": "uint256",
          "name": "eventId",
          "type": "uint256"
        },
        {
          "indexed": false,
          "internalType": "uint256",
          "name": "time",
          "type": "uint256"
        },
        {
          "indexed": false,
          "internalType": "uint256",
          "name": "price",
          "type": "uint256"
        },
        {
          "indexed": false,
          "internalType": "uint256",
          "name": "seats",
          "type": "uint256"
        },
        {
          "indexed": false,
          "internalType": "string",
          "name": "ipfs",
          "type": "string"
        },
        {
          "indexed": false,
          "internalType": "string",
          "name": "category",
          "type": "string"
        }
      ],
      "name": "UpdatedEvent",
      "type": "event"
    },
    {
      "constant": true,
      "inputs": [],
      "name": "_eventIds",
      "outputs": [
        {
          "internalType": "uint256",
          "name": "",
          "type": "uint256"
        }
      ],
      "payable": false,
      "stateMutability": "view",
      "type": "function"
    },
    {
      "constant": true,
      "inputs": [],
      "name": "_ticketIds",
      "outputs": [
        {
          "internalType": "uint256",
          "name": "",
          "type": "uint256"
        }
      ],
      "payable": false,
      "stateMutability": "view",
      "type": "function"
    },
    {
      "constant": false,
      "inputs": [
        {
          "internalType": "address",
          "name": "to",
          "type": "address"
        },
        {
          "internalType": "uint256",
          "name": "tokenId",
          "type": "uint256"
        }
      ],
      "name": "approve",
      "outputs": [],
      "payable": false,
      "stateMutability": "nonpayable",
      "type": "function"
    },
    {
      "constant": true,
      "inputs": [
        {
          "internalType": "address",
          "name": "owner",
          "type": "address"
        }
      ],
      "name": "balanceOf",
      "outputs": [
        {
          "internalType": "uint256",
          "name": "",
          "type": "uint256"
        }
      ],
      "payable": false,
      "stateMutability": "view",
      "type": "function"
    },
    {
      "constant": false,
      "inputs": [
        {
          "internalType": "uint256",
          "name": "_eventId",
          "type": "uint256"
        }
      ],
      "name": "buyTicket",
      "outputs": [],
      "payable": true,
      "stateMutability": "payable",
      "type": "function"
    },
    {
      "constant": false,
      "inputs": [
        {
          "internalType": "address",
          "name": "_token",
          "type": "address"
        }
      ],
      "name": "chengeToken",
      "outputs": [],
      "payable": false,
      "stateMutability": "nonpayable",
      "type": "function"
    },
    {
      "constant": false,
      "inputs": [
        {
          "internalType": "string",
          "name": "_name",
          "type": "string"
        },
        {
          "internalType": "uint256",
          "name": "_time",
          "type": "uint256"
        },
        {
          "internalType": "uint256",
          "name": "_price",
          "type": "uint256"
        },
        {
          "internalType": "bool",
          "name": "_token",
          "type": "bool"
        },
        {
          "internalType": "bool",
          "name": "_limited",
          "type": "bool"
        },
        {
          "internalType": "uint256",
          "name": "_seats",
          "type": "uint256"
        },
        {
          "internalType": "string",
          "name": "_ipfs",
          "type": "string"
        },
        {
          "internalType": "string",
          "name": "_category",
          "type": "string"
        }
      ],
      "name": "createEvent",
      "outputs": [],
      "payable": false,
      "stateMutability": "nonpayable",
      "type": "function"
    },
    {
      "constant": false,
      "inputs": [
        {
          "internalType": "uint256",
          "name": "_id",
          "type": "uint256"
        }
      ],
      "name": "deleteEvent",
      "outputs": [],
      "payable": false,
      "stateMutability": "nonpayable",
      "type": "function"
    },
    {
      "constant": true,
      "inputs": [
        {
          "internalType": "uint256",
          "name": "",
          "type": "uint256"
        }
      ],
      "name": "eventRevenue",
      "outputs": [
        {
          "internalType": "uint256",
          "name": "",
          "type": "uint256"
        }
      ],
      "payable": false,
      "stateMutability": "view",
      "type": "function"
    },
    {
      "constant": true,
      "inputs": [
        {
          "internalType": "uint256",
          "name": "",
          "type": "uint256"
        }
      ],
      "name": "events",
      "outputs": [
        {
          "internalType": "string",
          "name": "name",
          "type": "string"
        },
        {
          "internalType": "uint256",
          "name": "time",
          "type": "uint256"
        },
        {
          "internalType": "uint256",
          "name": "price",
          "type": "uint256"
        },
        {
          "internalType": "bool",
          "name": "token",
          "type": "bool"
        },
        {
          "internalType": "bool",
          "name": "limited",
          "type": "bool"
        },
        {
          "internalType": "uint256",
          "name": "seats",
          "type": "uint256"
        },
        {
          "internalType": "uint256",
          "name": "sold",
          "type": "uint256"
        },
        {
          "internalType": "string",
          "name": "ipfs",
          "type": "string"
        },
        {
          "internalType": "string",
          "name": "category",
          "type": "string"
        },
        {
          "internalType": "address payable",
          "name": "owner",
          "type": "address"
        }
      ],
      "payable": false,
      "stateMutability": "view",
      "type": "function"
    },
    {
      "constant": true,
      "inputs": [
        {
          "internalType": "address",
          "name": "_owner",
          "type": "address"
        }
      ],
      "name": "eventsOf",
      "outputs": [
        {
          "internalType": "uint256[]",
          "name": "",
          "type": "uint256[]"
        }
      ],
      "payable": false,
      "stateMutability": "view",
      "type": "function"
    },
    {
      "constant": true,
      "inputs": [
        {
          "internalType": "uint256",
          "name": "tokenId",
          "type": "uint256"
        }
      ],
      "name": "getApproved",
      "outputs": [
        {
          "internalType": "address",
          "name": "",
          "type": "address"
        }
      ],
      "payable": false,
      "stateMutability": "view",
      "type": "function"
    },
    {
      "constant": true,
      "inputs": [],
      "name": "getEventsCount",
      "outputs": [
        {
          "internalType": "uint256",
          "name": "",
          "type": "uint256"
        }
      ],
      "payable": false,
      "stateMutability": "view",
      "type": "function"
    },
    {
      "constant": true,
      "inputs": [
        {
          "internalType": "uint256",
          "name": "_id",
          "type": "uint256"
        }
      ],
      "name": "getTicket",
      "outputs": [
        {
          "internalType": "uint256",
          "name": "",
          "type": "uint256"
        },
        {
          "internalType": "uint256",
          "name": "",
          "type": "uint256"
        }
      ],
      "payable": false,
      "stateMutability": "view",
      "type": "function"
    },
    {
      "constant": true,
      "inputs": [
        {
          "internalType": "address",
          "name": "owner",
          "type": "address"
        },
        {
          "internalType": "address",
          "name": "operator",
          "type": "address"
        }
      ],
      "name": "isApprovedForAll",
      "outputs": [
        {
          "internalType": "bool",
          "name": "",
          "type": "bool"
        }
      ],
      "payable": false,
      "stateMutability": "view",
      "type": "function"
    },
    {
      "constant": true,
      "inputs": [],
      "name": "isOwner",
      "outputs": [
        {
          "internalType": "bool",
          "name": "",
          "type": "bool"
        }
      ],
      "payable": false,
      "stateMutability": "view",
      "type": "function"
    },
    {
      "constant": true,
      "inputs": [],
      "name": "name",
      "outputs": [
        {
          "internalType": "string",
          "name": "",
          "type": "string"
        }
      ],
      "payable": false,
      "stateMutability": "view",
      "type": "function"
    },
    {
      "constant": true,
      "inputs": [],
      "name": "owner",
      "outputs": [
        {
          "internalType": "address",
          "name": "",
          "type": "address"
        }
      ],
      "payable": false,
      "stateMutability": "view",
      "type": "function"
    },
    {
      "constant": true,
      "inputs": [
        {
          "internalType": "uint256",
          "name": "tokenId",
          "type": "uint256"
        }
      ],
      "name": "ownerOf",
      "outputs": [
        {
          "internalType": "address",
          "name": "",
          "type": "address"
        }
      ],
      "payable": false,
      "stateMutability": "view",
      "type": "function"
    },
    {
      "constant": false,
      "inputs": [],
      "name": "renounceOwnership",
      "outputs": [],
      "payable": false,
      "stateMutability": "nonpayable",
      "type": "function"
    },
    {
      "constant": false,
      "inputs": [
        {
          "internalType": "address",
          "name": "from",
          "type": "address"
        },
        {
          "internalType": "address",
          "name": "to",
          "type": "address"
        },
        {
          "internalType": "uint256",
          "name": "tokenId",
          "type": "uint256"
        }
      ],
      "name": "safeTransferFrom",
      "outputs": [],
      "payable": false,
      "stateMutability": "nonpayable",
      "type": "function"
    },
    {
      "constant": false,
      "inputs": [
        {
          "internalType": "address",
          "name": "from",
          "type": "address"
        },
        {
          "internalType": "address",
          "name": "to",
          "type": "address"
        },
        {
          "internalType": "uint256",
          "name": "tokenId",
          "type": "uint256"
        },
        {
          "internalType": "bytes",
          "name": "_data",
          "type": "bytes"
        }
      ],
      "name": "safeTransferFrom",
      "outputs": [],
      "payable": false,
      "stateMutability": "nonpayable",
      "type": "function"
    },
    {
      "constant": false,
      "inputs": [
        {
          "internalType": "address",
          "name": "to",
          "type": "address"
        },
        {
          "internalType": "bool",
          "name": "approved",
          "type": "bool"
        }
      ],
      "name": "setApprovalForAll",
      "outputs": [],
      "payable": false,
      "stateMutability": "nonpayable",
      "type": "function"
    },
    {
      "constant": true,
      "inputs": [
        {
          "internalType": "bytes4",
          "name": "interfaceId",
          "type": "bytes4"
        }
      ],
      "name": "supportsInterface",
      "outputs": [
        {
          "internalType": "bool",
          "name": "",
          "type": "bool"
        }
      ],
      "payable": false,
      "stateMutability": "view",
      "type": "function"
    },
    {
      "constant": true,
      "inputs": [],
      "name": "symbol",
      "outputs": [
        {
          "internalType": "string",
          "name": "",
          "type": "string"
        }
      ],
      "payable": false,
      "stateMutability": "view",
      "type": "function"
    },
    {
      "constant": true,
      "inputs": [
        {
          "internalType": "address",
          "name": "owner",
          "type": "address"
        }
      ],
      "name": "ticketsOf",
      "outputs": [
        {
          "internalType": "uint256[]",
          "name": "",
          "type": "uint256[]"
        }
      ],
      "payable": false,
      "stateMutability": "view",
      "type": "function"
    },
    {
      "constant": true,
      "inputs": [
        {
          "internalType": "uint256",
          "name": "index",
          "type": "uint256"
        }
      ],
      "name": "tokenByIndex",
      "outputs": [
        {
          "internalType": "uint256",
          "name": "",
          "type": "uint256"
        }
      ],
      "payable": false,
      "stateMutability": "view",
      "type": "function"
    },
    {
      "constant": true,
      "inputs": [
        {
          "internalType": "address",
          "name": "owner",
          "type": "address"
        },
        {
          "internalType": "uint256",
          "name": "index",
          "type": "uint256"
        }
      ],
      "name": "tokenOfOwnerByIndex",
      "outputs": [
        {
          "internalType": "uint256",
          "name": "",
          "type": "uint256"
        }
      ],
      "payable": false,
      "stateMutability": "view",
      "type": "function"
    },
    {
      "constant": true,
      "inputs": [
        {
          "internalType": "uint256",
          "name": "id",
          "type": "uint256"
        }
      ],
      "name": "tokenOwner",
      "outputs": [
        {
          "internalType": "address",
          "name": "",
          "type": "address"
        }
      ],
      "payable": false,
      "stateMutability": "view",
      "type": "function"
    },
    {
      "constant": true,
      "inputs": [
        {
          "internalType": "uint256",
          "name": "tokenId",
          "type": "uint256"
        }
      ],
      "name": "tokenURI",
      "outputs": [
        {
          "internalType": "string",
          "name": "",
          "type": "string"
        }
      ],
      "payable": false,
      "stateMutability": "view",
      "type": "function"
    },
    {
      "constant": true,
      "inputs": [],
      "name": "totalSupply",
      "outputs": [
        {
          "internalType": "uint256",
          "name": "",
          "type": "uint256"
        }
      ],
      "payable": false,
      "stateMutability": "view",
      "type": "function"
    },
    {
      "constant": false,
      "inputs": [
        {
          "internalType": "address",
          "name": "from",
          "type": "address"
        },
        {
          "internalType": "address",
          "name": "to",
          "type": "address"
        },
        {
          "internalType": "uint256",
          "name": "tokenId",
          "type": "uint256"
        }
      ],
      "name": "transferFrom",
      "outputs": [],
      "payable": false,
      "stateMutability": "nonpayable",
      "type": "function"
    },
    {
      "constant": false,
      "inputs": [
        {
          "internalType": "address",
          "name": "newOwner",
          "type": "address"
        }
      ],
      "name": "transferOwnership",
      "outputs": [],
      "payable": false,
      "stateMutability": "nonpayable",
      "type": "function"
    },
    {
      "constant": false,
      "inputs": [
        {
          "internalType": "uint256",
          "name": "_eventId",
          "type": "uint256"
        },
        {
          "internalType": "uint256",
          "name": "_time",
          "type": "uint256"
        },
        {
          "internalType": "uint256",
          "name": "_price",
          "type": "uint256"
        },
        {
          "internalType": "bool",
          "name": "_token",
          "type": "bool"
        },
        {
          "internalType": "bool",
          "name": "_limited",
          "type": "bool"
        },
        {
          "internalType": "uint256",
          "name": "_seats",
          "type": "uint256"
        },
        {
          "internalType": "string",
          "name": "_ipfs",
          "type": "string"
        },
        {
          "internalType": "string",
          "name": "_category",
          "type": "string"
        }
      ],
      "name": "updateEvent",
      "outputs": [],
      "payable": false,
      "stateMutability": "nonpayable",
      "type": "function"
    }
  ],
  "bytecode": "0x60806040523480156200001157600080fd5b50604051620060f6380380620060f6833981810160405260208110156200003757600080fd5b81019080805190602001909291905050506040518060400160405280601181526020017f50686f656e697844414f205469636b65740000000000000000000000000000008152506040518060400160405280600381526020017f44444400000000000000000000000000000000000000000000000000000000008152508181620000ce6301ffc9a760e01b6200025260201b60201c565b620000e66380ac58cd60e01b6200025260201b60201c565b620000fe63780e9d6360e01b6200025260201b60201c565b8160099080519060200190620001169291906200035b565b5080600a90805190602001906200012f9291906200035b565b5062000148635b5e139f60e01b6200025260201b60201c565b5050505033600d60006101000a81548173ffffffffffffffffffffffffffffffffffffffff021916908373ffffffffffffffffffffffffffffffffffffffff160217905550600d60009054906101000a900473ffffffffffffffffffffffffffffffffffffffff1673ffffffffffffffffffffffffffffffffffffffff16600073ffffffffffffffffffffffffffffffffffffffff167f8be0079c531659141344cd1fd0a4f28419497f9722a3daafe3b4186f6b6457e060405160405180910390a380601060006101000a81548173ffffffffffffffffffffffffffffffffffffffff021916908373ffffffffffffffffffffffffffffffffffffffff160217905550506200040a565b63ffffffff60e01b817bffffffffffffffffffffffffffffffffffffffffffffffffffffffff19161415620002ef576040517f08c379a000000000000000000000000000000000000000000000000000000000815260040180806020018281038252601c8152602001807f4552433136353a20696e76616c696420696e746572666163652069640000000081525060200191505060405180910390fd5b6001600080837bffffffffffffffffffffffffffffffffffffffffffffffffffffffff19167bffffffffffffffffffffffffffffffffffffffffffffffffffffffff1916815260200190815260200160002060006101000a81548160ff02191690831515021790555050565b828054600181600116156101000203166002900490600052602060002090601f016020900481019282601f106200039e57805160ff1916838001178555620003cf565b82800160010185558215620003cf579182015b82811115620003ce578251825591602001919060010190620003b1565b5b509050620003de9190620003e2565b5090565b6200040791905b8082111562000403576000816000905550600101620003e9565b5090565b90565b615cdc806200041a6000396000f3fe6080604052600436106101f95760003560e01c80636352211e1161010d5780638f32d59b116100a0578063c87b56dd1161006f578063c87b56dd1461102e578063e985e9c5146110e2578063f2fde38b1461116b578063f8749a58146111bc578063fb1999c6146111f7576101f9565b80638f32d59b14610e0057806395d89b4114610e2f578063a22cb46514610ebf578063b88d4fde14610f1c576101f9565b806370a08231116100dc57806370a0823114610cd7578063715018a614610d3c5780637dc379fa14610d535780638da5cb5b14610da9576101f9565b80636352211e14610b3957806367dd74ca14610bb457806368ed44e714610be25780636fa605e314610c88576101f9565b80631caaa48711610190578063316579261161015f578063316579261461094d5780633289ac2b146109f357806342842e0e14610a445780634f6ccce714610abf578063548f8b5114610b0e576101f9565b80631caaa487146107bd57806323b872dd146108385780632f745c59146108b357806330366d5f14610922576101f9565b80630b791430116101cc5780630b791430146103d65780631109191a146105c757806316cb7b5d1461076757806318160ddd14610792576101f9565b806301ffc9a7146101fe57806306fdde0314610270578063081812fc14610300578063095ea7b31461037b575b600080fd5b34801561020a57600080fd5b506102566004803603602081101561022157600080fd5b8101908080357bffffffffffffffffffffffffffffffffffffffffffffffffffffffff19169060200190929190505050611424565b604051808215151515815260200191505060405180910390f35b34801561027c57600080fd5b5061028561148b565b6040518080602001828103825283818151815260200191508051906020019080838360005b838110156102c55780820151818401526020810190506102aa565b50505050905090810190601f1680156102f25780820380516001836020036101000a031916815260200191505b509250505060405180910390f35b34801561030c57600080fd5b506103396004803603602081101561032357600080fd5b810190808035906020019092919050505061152d565b604051808273ffffffffffffffffffffffffffffffffffffffff1673ffffffffffffffffffffffffffffffffffffffff16815260200191505060405180910390f35b34801561038757600080fd5b506103d46004803603604081101561039e57600080fd5b81019080803573ffffffffffffffffffffffffffffffffffffffff169060200190929190803590602001909291905050506115c8565b005b3480156103e257600080fd5b5061040f600480360360208110156103f957600080fd5b81019080803590602001909291905050506117a1565b60405180806020018b81526020018a8152602001891515151581526020018815151515815260200187815260200186815260200180602001806020018573ffffffffffffffffffffffffffffffffffffffff1673ffffffffffffffffffffffffffffffffffffffff16815260200184810384528e818151815260200191508051906020019080838360005b838110156104b557808201518184015260208101905061049a565b50505050905090810190601f1680156104e25780820380516001836020036101000a031916815260200191505b50848103835287818151815260200191508051906020019080838360005b8381101561051b578082015181840152602081019050610500565b50505050905090810190601f1680156105485780820380516001836020036101000a031916815260200191505b50848103825286818151815260200191508051906020019080838360005b83811015610581578082015181840152602081019050610566565b50505050905090810190601f1680156105ae5780820380516001836020036101000a031916815260200191505b509d505050505050505050505050505060405180910390f35b3480156105d357600080fd5b5061076560048036036101008110156105eb57600080fd5b81019080803590602001909291908035906020019092919080359060200190929190803515159060200190929190803515159060200190929190803590602001909291908035906020019064010000000081111561064857600080fd5b82018360208201111561065a57600080fd5b8035906020019184600183028401116401000000008311171561067c57600080fd5b91908080601f016020809104026020016040519081016040528093929190818152602001838380828437600081840152601f19601f820116905080830192505050505050509192919290803590602001906401000000008111156106df57600080fd5b8201836020820111156106f157600080fd5b8035906020019184600183028401116401000000008311171561071357600080fd5b91908080601f016020809104026020016040519081016040528093929190818152602001838380828437600081840152601f19601f8201169050808301925050505050505091929192905050506119f7565b005b34801561077357600080fd5b5061077c612399565b6040518082815260200191505060405180910390f35b34801561079e57600080fd5b506107a761239f565b6040518082815260200191505060405180910390f35b3480156107c957600080fd5b506107f6600480360360208110156107e057600080fd5b81019080803590602001909291905050506123ac565b604051808273ffffffffffffffffffffffffffffffffffffffff1673ffffffffffffffffffffffffffffffffffffffff16815260200191505060405180910390f35b34801561084457600080fd5b506108b16004803603606081101561085b57600080fd5b81019080803573ffffffffffffffffffffffffffffffffffffffff169060200190929190803573ffffffffffffffffffffffffffffffffffffffff169060200190929190803590602001909291905050506123be565b005b3480156108bf57600080fd5b5061090c600480360360408110156108d657600080fd5b81019080803573ffffffffffffffffffffffffffffffffffffffff1690602001909291908035906020019092919050505061242d565b6040518082815260200191505060405180910390f35b34801561092e57600080fd5b506109376124ec565b6040518082815260200191505060405180910390f35b34801561095957600080fd5b5061099c6004803603602081101561097057600080fd5b81019080803573ffffffffffffffffffffffffffffffffffffffff1690602001909291905050506124f6565b6040518080602001828103825283818151815260200191508051906020019060200280838360005b838110156109df5780820151818401526020810190506109c4565b505050509050019250505060405180910390f35b3480156109ff57600080fd5b50610a4260048036036020811015610a1657600080fd5b81019080803573ffffffffffffffffffffffffffffffffffffffff16906020019092919050505061260e565b005b348015610a5057600080fd5b50610abd60048036036060811015610a6757600080fd5b81019080803573ffffffffffffffffffffffffffffffffffffffff169060200190929190803573ffffffffffffffffffffffffffffffffffffffff169060200190929190803590602001909291905050506126cc565b005b348015610acb57600080fd5b50610af860048036036020811015610ae257600080fd5b81019080803590602001909291905050506126ec565b6040518082815260200191505060405180910390f35b348015610b1a57600080fd5b50610b2361276c565b6040518082815260200191505060405180910390f35b348015610b4557600080fd5b50610b7260048036036020811015610b5c57600080fd5b8101908080359060200190929190505050612772565b604051808273ffffffffffffffffffffffffffffffffffffffff1673ffffffffffffffffffffffffffffffffffffffff16815260200191505060405180910390f35b610be060048036036020811015610bca57600080fd5b810190808035906020019092919050505061283a565b005b348015610bee57600080fd5b50610c3160048036036020811015610c0557600080fd5b81019080803573ffffffffffffffffffffffffffffffffffffffff169060200190929190505050612f6f565b6040518080602001828103825283818151815260200191508051906020019060200280838360005b83811015610c74578082015181840152602081019050610c59565b505050509050019250505060405180910390f35b348015610c9457600080fd5b50610cc160048036036020811015610cab57600080fd5b8101908080359060200190929190505050613006565b6040518082815260200191505060405180910390f35b348015610ce357600080fd5b50610d2660048036036020811015610cfa57600080fd5b81019080803573ffffffffffffffffffffffffffffffffffffffff16906020019092919050505061301e565b6040518082815260200191505060405180910390f35b348015610d4857600080fd5b50610d516130f3565b005b348015610d5f57600080fd5b50610d8c60048036036020811015610d7657600080fd5b810190808035906020019092919050505061322e565b604051808381526020018281526020019250505060405180910390f35b348015610db557600080fd5b50610dbe613315565b604051808273ffffffffffffffffffffffffffffffffffffffff1673ffffffffffffffffffffffffffffffffffffffff16815260200191505060405180910390f35b348015610e0c57600080fd5b50610e1561333f565b604051808215151515815260200191505060405180910390f35b348015610e3b57600080fd5b50610e44613397565b6040518080602001828103825283818151815260200191508051906020019080838360005b83811015610e84578082015181840152602081019050610e69565b50505050905090810190601f168015610eb15780820380516001836020036101000a031916815260200191505b509250505060405180910390f35b348015610ecb57600080fd5b50610f1a60048036036040811015610ee257600080fd5b81019080803573ffffffffffffffffffffffffffffffffffffffff169060200190929190803515159060200190929190505050613439565b005b348015610f2857600080fd5b5061102c60048036036080811015610f3f57600080fd5b81019080803573ffffffffffffffffffffffffffffffffffffffff169060200190929190803573ffffffffffffffffffffffffffffffffffffffff1690602001909291908035906020019092919080359060200190640100000000811115610fa657600080fd5b820183602082011115610fb857600080fd5b80359060200191846001830284011164010000000083111715610fda57600080fd5b91908080601f016020809104026020016040519081016040528093929190818152602001838380828437600081840152601f19601f8201169050808301925050505050505091929192905050506135dc565b005b34801561103a57600080fd5b506110676004803603602081101561105157600080fd5b810190808035906020019092919050505061364e565b6040518080602001828103825283818151815260200191508051906020019080838360005b838110156110a757808201518184015260208101905061108c565b50505050905090810190601f1680156110d45780820380516001836020036101000a031916815260200191505b509250505060405180910390f35b3480156110ee57600080fd5b506111516004803603604081101561110557600080fd5b81019080803573ffffffffffffffffffffffffffffffffffffffff169060200190929190803573ffffffffffffffffffffffffffffffffffffffff169060200190929190505050613761565b604051808215151515815260200191505060405180910390f35b34801561117757600080fd5b506111ba6004803603602081101561118e57600080fd5b81019080803573ffffffffffffffffffffffffffffffffffffffff1690602001909291905050506137f5565b005b3480156111c857600080fd5b506111f5600480360360208110156111df57600080fd5b810190808035906020019092919050505061387b565b005b34801561120357600080fd5b50611422600480360361010081101561121b57600080fd5b810190808035906020019064010000000081111561123857600080fd5b82018360208201111561124a57600080fd5b8035906020019184600183028401116401000000008311171561126c57600080fd5b91908080601f016020809104026020016040519081016040528093929190818152602001838380828437600081840152601f19601f8201169050808301925050505050505091929192908035906020019092919080359060200190929190803515159060200190929190803515159060200190929190803590602001909291908035906020019064010000000081111561130557600080fd5b82018360208201111561131757600080fd5b8035906020019184600183028401116401000000008311171561133957600080fd5b91908080601f016020809104026020016040519081016040528093929190818152602001838380828437600081840152601f19601f8201169050808301925050505050505091929192908035906020019064010000000081111561139c57600080fd5b8201836020820111156113ae57600080fd5b803590602001918460018302840111640100000000831117156113d057600080fd5b91908080601f016020809104026020016040519081016040528093929190818152602001838380828437600081840152601f19601f820116905080830192505050505050509192919290505050613ea6565b005b6000806000837bffffffffffffffffffffffffffffffffffffffffffffffffffffffff19167bffffffffffffffffffffffffffffffffffffffffffffffffffffffff1916815260200190815260200160002060009054906101000a900460ff169050919050565b606060098054600181600116156101000203166002900480601f0160208091040260200160405190810160405280929190818152602001828054600181600116156101000203166002900480156115235780601f106114f857610100808354040283529160200191611523565b820191906000526020600020905b81548152906001019060200180831161150657829003601f168201915b5050505050905090565b60006115388261454e565b61158d576040517f08c379a000000000000000000000000000000000000000000000000000000000815260040180806020018281038252602c815260200180615ba6602c913960400191505060405180910390fd5b6002600083815260200190815260200160002060009054906101000a900473ffffffffffffffffffffffffffffffffffffffff169050919050565b60006115d382612772565b90508073ffffffffffffffffffffffffffffffffffffffff168373ffffffffffffffffffffffffffffffffffffffff16141561165a576040517f08c379a0000000000000000000000000000000000000000000000000000000008152600401808060200182810382526021815260200180615c2a6021913960400191505060405180910390fd5b8073ffffffffffffffffffffffffffffffffffffffff163373ffffffffffffffffffffffffffffffffffffffff16148061169a57506116998133613761565b5b6116ef576040517f08c379a0000000000000000000000000000000000000000000000000000000008152600401808060200182810382526038815260200180615b1b6038913960400191505060405180910390fd5b826002600084815260200190815260200160002060006101000a81548173ffffffffffffffffffffffffffffffffffffffff021916908373ffffffffffffffffffffffffffffffffffffffff160217905550818373ffffffffffffffffffffffffffffffffffffffff168273ffffffffffffffffffffffffffffffffffffffff167f8c5be1e5ebec7d5bd14f71427d1e84f3dd0314c0f7b2291e5b200ac8c7c3b92560405160405180910390a4505050565b6013602052806000526040600020600091509050806000018054600181600116156101000203166002900480601f01602080910402602001604051908101604052809291908181526020018280546001816001161561010002031660029004801561184d5780601f106118225761010080835404028352916020019161184d565b820191906000526020600020905b81548152906001019060200180831161183057829003601f168201915b5050505050908060010154908060020154908060030160009054906101000a900460ff16908060030160019054906101000a900460ff1690806004015490806005015490806006018054600181600116156101000203166002900480601f0160208091040260200160405190810160405280929190818152602001828054600181600116156101000203166002900480156119295780601f106118fe57610100808354040283529160200191611929565b820191906000526020600020905b81548152906001019060200180831161190c57829003601f168201915b505050505090806007018054600181600116156101000203166002900480601f0160208091040260200160405190810160405280929190818152602001828054600181600116156101000203166002900480156119c75780601f1061199c576101008083540402835291602001916119c7565b820191906000526020600020905b8154815290600101906020018083116119aa57829003601f168201915b5050505050908060080160009054906101000a900473ffffffffffffffffffffffffffffffffffffffff1690508a565b86428111611a6d576040517f08c379a00000000000000000000000000000000000000000000000000000000081526004018080602001828103825260128152602001807f496e76616c69642054696d657374616d702e000000000000000000000000000081525060200191505060405180910390fd5b88600e54811115611ae6576040517f08c379a00000000000000000000000000000000000000000000000000000000081526004018080602001828103825260158152602001807f4576656e7420646f6573206e6f742065786973742e000000000000000000000081525060200191505060405180910390fd5b600073ffffffffffffffffffffffffffffffffffffffff16601360008c815260200190815260200160002060080160009054906101000a900473ffffffffffffffffffffffffffffffffffffffff1673ffffffffffffffffffffffffffffffffffffffff161415611bbf576040517f08c379a00000000000000000000000000000000000000000000000000000000081526004018080602001828103825260128152602001807f4576656e74206861732064656c657465642e000000000000000000000000000081525060200191505060405180910390fd5b3373ffffffffffffffffffffffffffffffffffffffff16601360008c815260200190815260200160002060080160009054906101000a900473ffffffffffffffffffffffffffffffffffffffff1673ffffffffffffffffffffffffffffffffffffffff1614611c96576040517f08c379a000000000000000000000000000000000000000000000000000000000815260040180806020018281038252601c8152602001807f4f6e6c79204576656e74206f776e65722063616e206163636573732e0000000081525060200191505060405180910390fd5b88601360008c81526020019081526020016000206001018190555087601360008c81526020019081526020016000206002018190555086601360008c815260200190815260200160002060030160006101000a81548160ff02191690831515021790555085601360008c815260200190815260200160002060030160016101000a81548160ff02191690831515021790555084601360008c81526020019081526020016000206004018190555083601360008c81526020019081526020016000206006019080519060200190611d6d929190615833565b5082601360008c81526020019081526020016000206007019080519060200190611d98929190615833565b50611da16158b3565b601360008c815260200190815260200160002060405180610140016040529081600082018054600181600116156101000203166002900480601f016020809104026020016040519081016040528092919081815260200182805460018160011615610100020316600290048015611e595780601f10611e2e57610100808354040283529160200191611e59565b820191906000526020600020905b815481529060010190602001808311611e3c57829003601f168201915b5050505050815260200160018201548152602001600282015481526020016003820160009054906101000a900460ff161515151581526020016003820160019054906101000a900460ff161515151581526020016004820154815260200160058201548152602001600682018054600181600116156101000203166002900480601f016020809104026020016040519081016040528092919081815260200182805460018160011615610100020316600290048015611f595780601f10611f2e57610100808354040283529160200191611f59565b820191906000526020600020905b815481529060010190602001808311611f3c57829003601f168201915b50505050508152602001600782018054600181600116156101000203166002900480601f016020809104026020016040519081016040528092919081815260200182805460018160011615610100020316600290048015611ffb5780601f10611fd057610100808354040283529160200191611ffb565b820191906000526020600020905b815481529060010190602001808311611fde57829003601f168201915b505050505081526020016008820160009054906101000a900473ffffffffffffffffffffffffffffffffffffffff1673ffffffffffffffffffffffffffffffffffffffff1673ffffffffffffffffffffffffffffffffffffffff168152505090507f5a694ae9154a5b60360aad270bdcb36c4aad4adeeb47e6e21526179d135470188b826020015183604001518460a001518560e00151866101000151604051808781526020018681526020018581526020018481526020018060200180602001838103835285818151815260200191508051906020019080838360005b838110156120f45780820151818401526020810190506120d9565b50505050905090810190601f1680156121215780820380516001836020036101000a031916815260200191505b50838103825284818151815260200191508051906020019080838360005b8381101561215a57808201518184015260208101905061213f565b50505050905090810190601f1680156121875780820380516001836020036101000a031916815260200191505b509850505050505050505060405180910390a13373ffffffffffffffffffffffffffffffffffffffff167f7668f33f341300e117296b6a9ec55190f8e6b8ac5715cf9432126960bf5967358c836000015184602001518560400151866060015187608001518860a001518960c001518a60e001518b6101000151604051808b8152602001806020018a81526020018981526020018815151515815260200187151515158152602001868152602001858152602001806020018060200184810384528d818151815260200191508051906020019080838360005b8381101561227b578082015181840152602081019050612260565b50505050905090810190601f1680156122a85780820380516001836020036101000a031916815260200191505b50848103835286818151815260200191508051906020019080838360005b838110156122e15780820151818401526020810190506122c6565b50505050905090810190601f16801561230e5780820380516001836020036101000a031916815260200191505b50848103825285818151815260200191508051906020019080838360005b8381101561234757808201518184015260208101905061232c565b50505050905090810190601f1680156123745780820380516001836020036101000a031916815260200191505b509d505050505050505050505050505060405180910390a25050505050505050505050565b600e5481565b6000600780549050905090565b60006123b782612772565b9050919050565b6123c833826145c0565b61241d576040517f08c379a0000000000000000000000000000000000000000000000000000000008152600401808060200182810382526031815260200180615c4b6031913960400191505060405180910390fd5b6124288383836146b4565b505050565b60006124388361301e565b821061248f576040517f08c379a000000000000000000000000000000000000000000000000000000000815260040180806020018281038252602b815260200180615a48602b913960400191505060405180910390fd5b600560008473ffffffffffffffffffffffffffffffffffffffff1673ffffffffffffffffffffffffffffffffffffffff16815260200190815260200160002082815481106124d957fe5b9060005260206000200154905092915050565b6000600e54905090565b606060006125038361301e565b9050600081141561254757600060405190808252806020026020018201604052801561253e5781602001602082028038833980820191505090505b50915050612609565b6060816040519080825280602002602001820160405280156125785781602001602082028038833980820191505090505b5090506000600f54905060008090506000600190505b828111612600578673ffffffffffffffffffffffffffffffffffffffff166125b582612772565b73ffffffffffffffffffffffffffffffffffffffff1614156125f357808483815181106125de57fe5b60200260200101818152505081806001019250505b808060010191505061258e565b83955050505050505b919050565b61261661333f565b612688576040517f08c379a00000000000000000000000000000000000000000000000000000000081526004018080602001828103825260208152602001807f4f776e61626c653a2063616c6c6572206973206e6f7420746865206f776e657281525060200191505060405180910390fd5b80601060006101000a81548173ffffffffffffffffffffffffffffffffffffffff021916908373ffffffffffffffffffffffffffffffffffffffff16021790555050565b6126e7838383604051806020016040528060008152506135dc565b505050565b60006126f661239f565b821061274d576040517f08c379a000000000000000000000000000000000000000000000000000000000815260040180806020018281038252602c815260200180615c7c602c913960400191505060405180910390fd5b6007828154811061275a57fe5b90600052602060002001549050919050565b600f5481565b6000806001600084815260200190815260200160002060009054906101000a900473ffffffffffffffffffffffffffffffffffffffff169050600073ffffffffffffffffffffffffffffffffffffffff168173ffffffffffffffffffffffffffffffffffffffff161415612831576040517f08c379a0000000000000000000000000000000000000000000000000000000008152600401808060200182810382526029815260200180615b7d6029913960400191505060405180910390fd5b80915050919050565b80600e548111156128b3576040517f08c379a00000000000000000000000000000000000000000000000000000000081526004018080602001828103825260158152602001807f4576656e7420646f6573206e6f742065786973742e000000000000000000000081525060200191505060405180910390fd5b601360008381526020019081526020016000206001015442811161293f576040517f08c379a00000000000000000000000000000000000000000000000000000000081526004018080602001828103825260128152602001807f496e76616c69642054696d657374616d702e000000000000000000000000000081525060200191505060405180910390fd5b6129476158b3565b6013600085815260200190815260200160002060405180610140016040529081600082018054600181600116156101000203166002900480601f0160208091040260200160405190810160405280929190818152602001828054600181600116156101000203166002900480156129ff5780601f106129d4576101008083540402835291602001916129ff565b820191906000526020600020905b8154815290600101906020018083116129e257829003601f168201915b5050505050815260200160018201548152602001600282015481526020016003820160009054906101000a900460ff161515151581526020016003820160019054906101000a900460ff161515151581526020016004820154815260200160058201548152602001600682018054600181600116156101000203166002900480601f016020809104026020016040519081016040528092919081815260200182805460018160011615610100020316600290048015612aff5780601f10612ad457610100808354040283529160200191612aff565b820191906000526020600020905b815481529060010190602001808311612ae257829003601f168201915b50505050508152602001600782018054600181600116156101000203166002900480601f016020809104026020016040519081016040528092919081815260200182805460018160011615610100020316600290048015612ba15780601f10612b7657610100808354040283529160200191612ba1565b820191906000526020600020905b815481529060010190602001808311612b8457829003601f168201915b505050505081526020016008820160009054906101000a900473ffffffffffffffffffffffffffffffffffffffff1673ffffffffffffffffffffffffffffffffffffffff1673ffffffffffffffffffffffffffffffffffffffff16815250509050806080015115612c21578060c001518160a0015111612c2057600080fd5b5b8060600151612c90578060400151341015612c3b57600080fd5b80610120015173ffffffffffffffffffffffffffffffffffffffff166108fc82604001519081150290604051600060405180830381858888f19350505050158015612c8a573d6000803e3d6000fd5b50612e40565b601060009054906101000a900473ffffffffffffffffffffffffffffffffffffffff1673ffffffffffffffffffffffffffffffffffffffff166323b872dd3383610120015184604001516040518463ffffffff1660e01b8152600401808473ffffffffffffffffffffffffffffffffffffffff1673ffffffffffffffffffffffffffffffffffffffff1681526020018373ffffffffffffffffffffffffffffffffffffffff1673ffffffffffffffffffffffffffffffffffffffff1681526020018281526020019350505050602060405180830381600087803b158015612d7657600080fd5b505af1158015612d8a573d6000803e3d6000fd5b505050506040513d6020811015612da057600080fd5b8101908080519060200190929190505050612dfe576040517f08c379a0000000000000000000000000000000000000000000000000000000008152600401808060200182810382526000815260200160200191505060405180910390fd5b612e28816040015160126000878152602001908152602001600020546146d890919063ffffffff16565b60126000868152602001908152602001600020819055505b612e5860018260c001516146d890919063ffffffff16565b6013600086815260200190815260200160002060050181905550612e7a615920565b604051806040016040528086815260200160136000888152602001908152602001600020600501548152509050600f600081548092919060010191905055506000600f549050600c82908060018154018082558091505090600182039060005260206000209060020201600090919290919091506000820151816000015560208201518160010155505050612f0f3382614760565b853373ffffffffffffffffffffffffffffffffffffffff167f97688cba7bf855e0de150e78d076aad5556007b5c34a8e89612b5f2085d0efbf836040518082815260200191505060405180910390a3612f6786614781565b505050505050565b6060601160008373ffffffffffffffffffffffffffffffffffffffff1673ffffffffffffffffffffffffffffffffffffffff168152602001908152602001600020805480602002602001604051908101604052809291908181526020018280548015612ffa57602002820191906000526020600020905b815481526020019060010190808311612fe6575b50505050509050919050565b60126020528060005260406000206000915090505481565b60008073ffffffffffffffffffffffffffffffffffffffff168273ffffffffffffffffffffffffffffffffffffffff1614156130a5576040517f08c379a000000000000000000000000000000000000000000000000000000000815260040180806020018281038252602a815260200180615b53602a913960400191505060405180910390fd5b6130ec600360008473ffffffffffffffffffffffffffffffffffffffff1673ffffffffffffffffffffffffffffffffffffffff168152602001908152602001600020614c3f565b9050919050565b6130fb61333f565b61316d576040517f08c379a00000000000000000000000000000000000000000000000000000000081526004018080602001828103825260208152602001807f4f776e61626c653a2063616c6c6572206973206e6f7420746865206f776e657281525060200191505060405180910390fd5b600073ffffffffffffffffffffffffffffffffffffffff16600d60009054906101000a900473ffffffffffffffffffffffffffffffffffffffff1673ffffffffffffffffffffffffffffffffffffffff167f8be0079c531659141344cd1fd0a4f28419497f9722a3daafe3b4186f6b6457e060405160405180910390a36000600d60006101000a81548173ffffffffffffffffffffffffffffffffffffffff021916908373ffffffffffffffffffffffffffffffffffffffff160217905550565b60008060008314156132a8576040517f08c379a000000000000000000000000000000000000000000000000000000000815260040180806020018281038252601f8152602001807f44616f4576656e74733a6765745469636b65743a20496e76616c69642049440081525060200191505060405180910390fd5b600c805490508311156132ba57600080fd5b6132c2615920565b600c60018503815481106132d257fe5b9060005260206000209060020201604051806040016040529081600082015481526020016001820154815250509050806000015181602001519250925050915091565b6000600d60009054906101000a900473ffffffffffffffffffffffffffffffffffffffff16905090565b6000600d60009054906101000a900473ffffffffffffffffffffffffffffffffffffffff1673ffffffffffffffffffffffffffffffffffffffff163373ffffffffffffffffffffffffffffffffffffffff1614905090565b6060600a8054600181600116156101000203166002900480601f01602080910402602001604051908101604052809291908181526020018280546001816001161561010002031660029004801561342f5780601f106134045761010080835404028352916020019161342f565b820191906000526020600020905b81548152906001019060200180831161341257829003601f168201915b5050505050905090565b3373ffffffffffffffffffffffffffffffffffffffff168273ffffffffffffffffffffffffffffffffffffffff1614156134db576040517f08c379a00000000000000000000000000000000000000000000000000000000081526004018080602001828103825260198152602001807f4552433732313a20617070726f766520746f2063616c6c65720000000000000081525060200191505060405180910390fd5b80600460003373ffffffffffffffffffffffffffffffffffffffff1673ffffffffffffffffffffffffffffffffffffffff16815260200190815260200160002060008473ffffffffffffffffffffffffffffffffffffffff1673ffffffffffffffffffffffffffffffffffffffff16815260200190815260200160002060006101000a81548160ff0219169083151502179055508173ffffffffffffffffffffffffffffffffffffffff163373ffffffffffffffffffffffffffffffffffffffff167f17307eab39ab6107e8899845ad3d59bd9653f200f220920489ca2b5937696c3183604051808215151515815260200191505060405180910390a35050565b6135e78484846123be565b6135f384848484614c4d565b613648576040517f08c379a0000000000000000000000000000000000000000000000000000000008152600401808060200182810382526032815260200180615a736032913960400191505060405180910390fd5b50505050565b60606136598261454e565b6136ae576040517f08c379a000000000000000000000000000000000000000000000000000000000815260040180806020018281038252602f815260200180615bfb602f913960400191505060405180910390fd5b600b60008381526020019081526020016000208054600181600116156101000203166002900480601f0160208091040260200160405190810160405280929190818152602001828054600181600116156101000203166002900480156137555780601f1061372a57610100808354040283529160200191613755565b820191906000526020600020905b81548152906001019060200180831161373857829003601f168201915b50505050509050919050565b6000600460008473ffffffffffffffffffffffffffffffffffffffff1673ffffffffffffffffffffffffffffffffffffffff16815260200190815260200160002060008373ffffffffffffffffffffffffffffffffffffffff1673ffffffffffffffffffffffffffffffffffffffff16815260200190815260200160002060009054906101000a900460ff16905092915050565b6137fd61333f565b61386f576040517f08c379a00000000000000000000000000000000000000000000000000000000081526004018080602001828103825260208152602001807f4f776e61626c653a2063616c6c6572206973206e6f7420746865206f776e657281525060200191505060405180910390fd5b61387881614e36565b50565b80600e548111156138f4576040517f08c379a00000000000000000000000000000000000000000000000000000000081526004018080602001828103825260158152602001807f4576656e7420646f6573206e6f742065786973742e000000000000000000000081525060200191505060405180910390fd5b600073ffffffffffffffffffffffffffffffffffffffff166013600084815260200190815260200160002060080160009054906101000a900473ffffffffffffffffffffffffffffffffffffffff1673ffffffffffffffffffffffffffffffffffffffff1614156139cd576040517f08c379a00000000000000000000000000000000000000000000000000000000081526004018080602001828103825260128152602001807f4576656e74206861732064656c657465642e000000000000000000000000000081525060200191505060405180910390fd5b3373ffffffffffffffffffffffffffffffffffffffff166013600084815260200190815260200160002060080160009054906101000a900473ffffffffffffffffffffffffffffffffffffffff1673ffffffffffffffffffffffffffffffffffffffff1614613aa4576040517f08c379a000000000000000000000000000000000000000000000000000000000815260040180806020018281038252601c8152602001807f4f6e6c79204576656e74206f776e65722063616e2064656c6574652e0000000081525060200191505060405180910390fd5b6000601360008481526020019081526020016000206005015414613b13576040517f08c379a000000000000000000000000000000000000000000000000000000000815260040180806020018281038252603c815260200180615a0c603c913960400191505060405180910390fd5b600080905060008090505b601160003373ffffffffffffffffffffffffffffffffffffffff1673ffffffffffffffffffffffffffffffffffffffff16815260200190815260200160002080549050811015613c2e57601160003373ffffffffffffffffffffffffffffffffffffffff1673ffffffffffffffffffffffffffffffffffffffff1681526020019081526020016000208181548110613bb257fe5b9060005260206000200154841415613c2157601160003373ffffffffffffffffffffffffffffffffffffffff1673ffffffffffffffffffffffffffffffffffffffff1681526020019081526020016000208181548110613c0e57fe5b9060005260206000200160009055600191505b8080600101915050613b1e565b5080613ca2576040517f08c379a00000000000000000000000000000000000000000000000000000000081526004018080602001828103825260208152602001807f5f696420646f6573206e6f7420657869737420666f722074686973207573657281525060200191505060405180910390fd5b60405180602001604052806000815250601360008581526020019081526020016000206000019080519060200190613cdb929190615833565b50600060136000858152602001908152602001600020600101819055506000601360008581526020019081526020016000206002018190555060006013600085815260200190815260200160002060030160006101000a81548160ff02191690831515021790555060006013600085815260200190815260200160002060030160016101000a81548160ff021916908315150217905550600060136000858152602001908152602001600020600401819055506000601360008581526020019081526020016000206005018190555060405180602001604052806000815250601360008581526020019081526020016000206006019080519060200190613de3929190615833565b5060405180602001604052806000815250601360008581526020019081526020016000206007019080519060200190613e1d929190615833565b5060006013600085815260200190815260200160002060080160006101000a81548173ffffffffffffffffffffffffffffffffffffffff021916908373ffffffffffffffffffffffffffffffffffffffff160217905550827f04c2d86b558533c9e99f34fdd95c51c75bad949c32b790c2c148ef8d4f7ae69a60405160405180910390a2505050565b86428111613f1c576040517f08c379a00000000000000000000000000000000000000000000000000000000081526004018080602001828103825260128152602001807f496e76616c69642054696d657374616d702e000000000000000000000000000081525060200191505060405180910390fd5b613f246158b3565b89816000018190525088816020018181525050878160400181815250508681606001901515908115158152505085816080019015159081151581525050848160a001818152505060008160c0018181525050838160e00181905250828161010001819052503381610120019073ffffffffffffffffffffffffffffffffffffffff16908173ffffffffffffffffffffffffffffffffffffffff1681525050600e600081548092919060010191905055506000600e5490508160136000838152602001908152602001600020600082015181600001908051906020019061400b92919061593a565b50602082015181600101556040820151816002015560608201518160030160006101000a81548160ff02191690831515021790555060808201518160030160016101000a81548160ff02191690831515021790555060a0820151816004015560c0820151816005015560e082015181600601908051906020019061409092919061593a565b506101008201518160070190805190602001906140ae92919061593a565b506101208201518160080160006101000a81548173ffffffffffffffffffffffffffffffffffffffff021916908373ffffffffffffffffffffffffffffffffffffffff160217905550905050601160003373ffffffffffffffffffffffffffffffffffffffff1673ffffffffffffffffffffffffffffffffffffffff1681526020019081526020016000208190806001815401808255809150509060018203906000526020600020016000909192909190915055503373ffffffffffffffffffffffffffffffffffffffff167f3515c596b516bae63dd6d353c9ece059970802f7e278e757ab5ebdf1d107d3c282846000015185602001518660400151876060015188608001518960a0015160008b60e001518c6101000151604051808b8152602001806020018a81526020018981526020018815151515815260200187151515158152602001868152602001858152602001806020018060200184810384528d818151815260200191508051906020019080838360005b83811015614241578082015181840152602081019050614226565b50505050905090810190601f16801561426e5780820380516001836020036101000a031916815260200191505b50848103835286818151815260200191508051906020019080838360005b838110156142a757808201518184015260208101905061428c565b50505050905090810190601f1680156142d45780820380516001836020036101000a031916815260200191505b50848103825285818151815260200191508051906020019080838360005b8381101561430d5780820151818401526020810190506142f2565b50505050905090810190601f16801561433a5780820380516001836020036101000a031916815260200191505b509d505050505050505050505050505060405180910390a23373ffffffffffffffffffffffffffffffffffffffff167f7668f33f341300e117296b6a9ec55190f8e6b8ac5715cf9432126960bf59673582846000015185602001518660400151876060015188608001518960a0015160008b60e001518c6101000151604051808b8152602001806020018a81526020018981526020018815151515815260200187151515158152602001868152602001858152602001806020018060200184810384528d818151815260200191508051906020019080838360005b83811015614430578082015181840152602081019050614415565b50505050905090810190601f16801561445d5780820380516001836020036101000a031916815260200191505b50848103835286818151815260200191508051906020019080838360005b8381101561449657808201518184015260208101905061447b565b50505050905090810190601f1680156144c35780820380516001836020036101000a031916815260200191505b50848103825285818151815260200191508051906020019080838360005b838110156144fc5780820151818401526020810190506144e1565b50505050905090810190601f1680156145295780820380516001836020036101000a031916815260200191505b509d505050505050505050505050505060405180910390a25050505050505050505050565b6000806001600084815260200190815260200160002060009054906101000a900473ffffffffffffffffffffffffffffffffffffffff169050600073ffffffffffffffffffffffffffffffffffffffff168173ffffffffffffffffffffffffffffffffffffffff161415915050919050565b60006145cb8261454e565b614620576040517f08c379a000000000000000000000000000000000000000000000000000000000815260040180806020018281038252602c815260200180615aef602c913960400191505060405180910390fd5b600061462b83612772565b90508073ffffffffffffffffffffffffffffffffffffffff168473ffffffffffffffffffffffffffffffffffffffff16148061469a57508373ffffffffffffffffffffffffffffffffffffffff166146828461152d565b73ffffffffffffffffffffffffffffffffffffffff16145b806146ab57506146aa8185613761565b5b91505092915050565b6146bf838383614f7c565b6146c983826151d7565b6146d38282615375565b505050565b600080828401905083811015614756576040517f08c379a000000000000000000000000000000000000000000000000000000000815260040180806020018281038252601b8152602001807f536166654d6174683a206164646974696f6e206f766572666c6f77000000000081525060200191505060405180910390fd5b8091505092915050565b61476a828261543c565b6147748282615375565b61477d81615654565b5050565b6147896158b3565b6013600083815260200190815260200160002060405180610140016040529081600082018054600181600116156101000203166002900480601f0160208091040260200160405190810160405280929190818152602001828054600181600116156101000203166002900480156148415780601f1061481657610100808354040283529160200191614841565b820191906000526020600020905b81548152906001019060200180831161482457829003601f168201915b5050505050815260200160018201548152602001600282015481526020016003820160009054906101000a900460ff161515151581526020016003820160019054906101000a900460ff161515151581526020016004820154815260200160058201548152602001600682018054600181600116156101000203166002900480601f0160208091040260200160405190810160405280929190818152602001828054600181600116156101000203166002900480156149415780601f1061491657610100808354040283529160200191614941565b820191906000526020600020905b81548152906001019060200180831161492457829003601f168201915b50505050508152602001600782018054600181600116156101000203166002900480601f0160208091040260200160405190810160405280929190818152602001828054600181600116156101000203166002900480156149e35780601f106149b8576101008083540402835291602001916149e3565b820191906000526020600020905b8154815290600101906020018083116149c657829003601f168201915b505050505081526020016008820160009054906101000a900473ffffffffffffffffffffffffffffffffffffffff1673ffffffffffffffffffffffffffffffffffffffff1673ffffffffffffffffffffffffffffffffffffffff1681525050905080610120015173ffffffffffffffffffffffffffffffffffffffff167f7668f33f341300e117296b6a9ec55190f8e6b8ac5715cf9432126960bf59673583836000015184602001518560400151866060015187608001518860a001518960c001518a60e001518b6101000151604051808b8152602001806020018a81526020018981526020018815151515815260200187151515158152602001868152602001858152602001806020018060200184810384528d818151815260200191508051906020019080838360005b83811015614b2a578082015181840152602081019050614b0f565b50505050905090810190601f168015614b575780820380516001836020036101000a031916815260200191505b50848103835286818151815260200191508051906020019080838360005b83811015614b90578082015181840152602081019050614b75565b50505050905090810190601f168015614bbd5780820380516001836020036101000a031916815260200191505b50848103825285818151815260200191508051906020019080838360005b83811015614bf6578082015181840152602081019050614bdb565b50505050905090810190601f168015614c235780820380516001836020036101000a031916815260200191505b509d505050505050505050505050505060405180910390a25050565b600081600001549050919050565b6000614c6e8473ffffffffffffffffffffffffffffffffffffffff166156a0565b614c7b5760019050614e2e565b60008473ffffffffffffffffffffffffffffffffffffffff1663150b7a02338887876040518563ffffffff1660e01b8152600401808573ffffffffffffffffffffffffffffffffffffffff1673ffffffffffffffffffffffffffffffffffffffff1681526020018473ffffffffffffffffffffffffffffffffffffffff1673ffffffffffffffffffffffffffffffffffffffff16815260200183815260200180602001828103825283818151815260200191508051906020019080838360005b83811015614d56578082015181840152602081019050614d3b565b50505050905090810190601f168015614d835780820380516001836020036101000a031916815260200191505b5095505050505050602060405180830381600087803b158015614da557600080fd5b505af1158015614db9573d6000803e3d6000fd5b505050506040513d6020811015614dcf57600080fd5b8101908080519060200190929190505050905063150b7a0260e01b7bffffffffffffffffffffffffffffffffffffffffffffffffffffffff1916817bffffffffffffffffffffffffffffffffffffffffffffffffffffffff1916149150505b949350505050565b600073ffffffffffffffffffffffffffffffffffffffff168173ffffffffffffffffffffffffffffffffffffffff161415614ebc576040517f08c379a0000000000000000000000000000000000000000000000000000000008152600401808060200182810382526026815260200180615aa56026913960400191505060405180910390fd5b8073ffffffffffffffffffffffffffffffffffffffff16600d60009054906101000a900473ffffffffffffffffffffffffffffffffffffffff1673ffffffffffffffffffffffffffffffffffffffff167f8be0079c531659141344cd1fd0a4f28419497f9722a3daafe3b4186f6b6457e060405160405180910390a380600d60006101000a81548173ffffffffffffffffffffffffffffffffffffffff021916908373ffffffffffffffffffffffffffffffffffffffff16021790555050565b8273ffffffffffffffffffffffffffffffffffffffff16614f9c82612772565b73ffffffffffffffffffffffffffffffffffffffff1614615008576040517f08c379a0000000000000000000000000000000000000000000000000000000008152600401808060200182810382526029815260200180615bd26029913960400191505060405180910390fd5b600073ffffffffffffffffffffffffffffffffffffffff168273ffffffffffffffffffffffffffffffffffffffff16141561508e576040517f08c379a0000000000000000000000000000000000000000000000000000000008152600401808060200182810382526024815260200180615acb6024913960400191505060405180910390fd5b615097816156b3565b6150de600360008573ffffffffffffffffffffffffffffffffffffffff1673ffffffffffffffffffffffffffffffffffffffff168152602001908152602001600020615771565b615125600360008473ffffffffffffffffffffffffffffffffffffffff1673ffffffffffffffffffffffffffffffffffffffff168152602001908152602001600020615794565b816001600083815260200190815260200160002060006101000a81548173ffffffffffffffffffffffffffffffffffffffff021916908373ffffffffffffffffffffffffffffffffffffffff160217905550808273ffffffffffffffffffffffffffffffffffffffff168473ffffffffffffffffffffffffffffffffffffffff167fddf252ad1be2c89b69c2b068fc378daa952ba7f163c4a11628f55a4df523b3ef60405160405180910390a4505050565b600061522f6001600560008673ffffffffffffffffffffffffffffffffffffffff1673ffffffffffffffffffffffffffffffffffffffff168152602001908152602001600020805490506157aa90919063ffffffff16565b905060006006600084815260200190815260200160002054905081811461531c576000600560008673ffffffffffffffffffffffffffffffffffffffff1673ffffffffffffffffffffffffffffffffffffffff168152602001908152602001600020838154811061529c57fe5b9060005260206000200154905080600560008773ffffffffffffffffffffffffffffffffffffffff1673ffffffffffffffffffffffffffffffffffffffff16815260200190815260200160002083815481106152f457fe5b9060005260206000200181905550816006600083815260200190815260200160002081905550505b600560008573ffffffffffffffffffffffffffffffffffffffff1673ffffffffffffffffffffffffffffffffffffffff16815260200190815260200160002080548091906001900361536e91906159ba565b5050505050565b600560008373ffffffffffffffffffffffffffffffffffffffff1673ffffffffffffffffffffffffffffffffffffffff168152602001908152602001600020805490506006600083815260200190815260200160002081905550600560008373ffffffffffffffffffffffffffffffffffffffff1673ffffffffffffffffffffffffffffffffffffffff1681526020019081526020016000208190806001815401808255809150509060018203906000526020600020016000909192909190915055505050565b600073ffffffffffffffffffffffffffffffffffffffff168273ffffffffffffffffffffffffffffffffffffffff1614156154df576040517f08c379a00000000000000000000000000000000000000000000000000000000081526004018080602001828103825260208152602001807f4552433732313a206d696e7420746f20746865207a65726f206164647265737381525060200191505060405180910390fd5b6154e88161454e565b1561555b576040517f08c379a000000000000000000000000000000000000000000000000000000000815260040180806020018281038252601c8152602001807f4552433732313a20746f6b656e20616c7265616479206d696e7465640000000081525060200191505060405180910390fd5b816001600083815260200190815260200160002060006101000a81548173ffffffffffffffffffffffffffffffffffffffff021916908373ffffffffffffffffffffffffffffffffffffffff1602179055506155f4600360008473ffffffffffffffffffffffffffffffffffffffff1673ffffffffffffffffffffffffffffffffffffffff168152602001908152602001600020615794565b808273ffffffffffffffffffffffffffffffffffffffff16600073ffffffffffffffffffffffffffffffffffffffff167fddf252ad1be2c89b69c2b068fc378daa952ba7f163c4a11628f55a4df523b3ef60405160405180910390a45050565b6007805490506008600083815260200190815260200160002081905550600781908060018154018082558091505090600182039060005260206000200160009091929091909150555050565b600080823b905060008111915050919050565b600073ffffffffffffffffffffffffffffffffffffffff166002600083815260200190815260200160002060009054906101000a900473ffffffffffffffffffffffffffffffffffffffff1673ffffffffffffffffffffffffffffffffffffffff161461576e5760006002600083815260200190815260200160002060006101000a81548173ffffffffffffffffffffffffffffffffffffffff021916908373ffffffffffffffffffffffffffffffffffffffff1602179055505b50565b615789600182600001546157aa90919063ffffffff16565b816000018190555050565b6001816000016000828254019250508190555050565b600082821115615822576040517f08c379a000000000000000000000000000000000000000000000000000000000815260040180806020018281038252601e8152602001807f536166654d6174683a207375627472616374696f6e206f766572666c6f77000081525060200191505060405180910390fd5b600082840390508091505092915050565b828054600181600116156101000203166002900490600052602060002090601f016020900481019282601f1061587457805160ff19168380011785556158a2565b828001600101855582156158a2579182015b828111156158a1578251825591602001919060010190615886565b5b5090506158af91906159e6565b5090565b60405180610140016040528060608152602001600081526020016000815260200160001515815260200160001515815260200160008152602001600081526020016060815260200160608152602001600073ffffffffffffffffffffffffffffffffffffffff1681525090565b604051806040016040528060008152602001600081525090565b828054600181600116156101000203166002900490600052602060002090601f016020900481019282601f1061597b57805160ff19168380011785556159a9565b828001600101855582156159a9579182015b828111156159a857825182559160200191906001019061598d565b5b5090506159b691906159e6565b5090565b8154818355818111156159e1578183600052602060002091820191016159e091906159e6565b5b505050565b615a0891905b80821115615a045760008160009055506001016159ec565b5090565b9056fe4576656e74207469636b65747320686173206265656e20736f6c6420736f20796f752063616e6e6f742064656c6574652074686973206576656e742e455243373231456e756d657261626c653a206f776e657220696e646578206f7574206f6620626f756e64734552433732313a207472616e7366657220746f206e6f6e20455243373231526563656976657220696d706c656d656e7465724f776e61626c653a206e6577206f776e657220697320746865207a65726f20616464726573734552433732313a207472616e7366657220746f20746865207a65726f20616464726573734552433732313a206f70657261746f7220717565727920666f72206e6f6e6578697374656e7420746f6b656e4552433732313a20617070726f76652063616c6c6572206973206e6f74206f776e6572206e6f7220617070726f76656420666f7220616c6c4552433732313a2062616c616e636520717565727920666f7220746865207a65726f20616464726573734552433732313a206f776e657220717565727920666f72206e6f6e6578697374656e7420746f6b656e4552433732313a20617070726f76656420717565727920666f72206e6f6e6578697374656e7420746f6b656e4552433732313a207472616e73666572206f6620746f6b656e2074686174206973206e6f74206f776e4552433732314d657461646174613a2055524920717565727920666f72206e6f6e6578697374656e7420746f6b656e4552433732313a20617070726f76616c20746f2063757272656e74206f776e65724552433732313a207472616e736665722063616c6c6572206973206e6f74206f776e6572206e6f7220617070726f766564455243373231456e756d657261626c653a20676c6f62616c20696e646578206f7574206f6620626f756e6473a265627a7a7231582077923e6a529c3895e4598aee5e5b5d7a4bcb1784f886a0538429b60765e83b4d64736f6c63430005110032",
  "compiler": {
    "name": "solc",
    "version": "0.5.17+commit.d19bba13.Emscripten.clang",
    "optimizer": {
      "enabled": false,
      "runs": 200
    },
    "evmVersion": "petersburg"
  }
}